{
  "contractName": "addLuggage2",
  "abi": [
    {
      "constant": true,
      "inputs": [],
      "name": "name",
      "outputs": [
        {
          "name": "",
          "type": "string"
        }
      ],
      "payable": false,
      "stateMutability": "view",
      "type": "function"
    },
    {
      "anonymous": false,
      "inputs": [
        {
          "indexed": false,
          "name": "account",
          "type": "string"
        },
        {
          "indexed": false,
          "name": "uuid",
          "type": "string"
        },
        {
          "indexed": false,
          "name": "weight",
          "type": "uint256"
        }
      ],
      "name": "AssetCreate",
      "type": "event"
    },
    {
      "anonymous": false,
      "inputs": [
        {
          "indexed": false,
          "name": "account",
          "type": "string"
        },
        {
          "indexed": false,
          "name": "uuid",
          "type": "string"
        },
        {
          "indexed": false,
          "name": "message",
          "type": "string"
        }
      ],
      "name": "RejectCreate",
      "type": "event"
    },
    {
      "anonymous": false,
      "inputs": [
        {
          "indexed": false,
          "name": "from",
          "type": "string"
        },
        {
          "indexed": false,
          "name": "to",
          "type": "string"
        },
        {
          "indexed": false,
          "name": "uuid",
          "type": "string"
        }
      ],
      "name": "AssetTransfer",
      "type": "event"
    },
    {
      "anonymous": false,
      "inputs": [
        {
          "indexed": false,
          "name": "from",
          "type": "string"
        },
        {
          "indexed": false,
          "name": "to",
          "type": "string"
        },
        {
          "indexed": false,
          "name": "uuid",
          "type": "string"
        },
        {
          "indexed": false,
          "name": "message",
          "type": "string"
        }
      ],
      "name": "RejectTransfer",
      "type": "event"
    },
    {
      "constant": false,
      "inputs": [
        {
          "name": "_uuid",
          "type": "string"
        },
        {
          "name": "_weight",
          "type": "uint256"
        },
        {
          "name": "_airport_initial",
          "type": "string"
        }
      ],
      "name": "createAsset",
      "outputs": [],
      "payable": false,
      "stateMutability": "nonpayable",
      "type": "function"
    },
    {
      "constant": false,
      "inputs": [
        {
          "name": "_airport_from",
          "type": "string"
        },
        {
          "name": "_airport_to",
          "type": "string"
        },
        {
          "name": "_uuid",
          "type": "string"
        }
      ],
      "name": "sendAsset",
      "outputs": [],
      "payable": false,
      "stateMutability": "nonpayable",
      "type": "function"
    },
    {
      "constant": false,
      "inputs": [
        {
          "name": "_airport_from",
          "type": "string"
        },
        {
          "name": "_airport_to",
          "type": "string"
        },
        {
          "name": "_uuid",
          "type": "string"
        }
      ],
      "name": "receiveAsset",
      "outputs": [],
      "payable": false,
      "stateMutability": "nonpayable",
      "type": "function"
    },
    {
      "constant": true,
      "inputs": [
        {
          "name": "_uuid",
          "type": "string"
        }
      ],
      "name": "getAssetByUUID",
      "outputs": [
        {
          "name": "",
          "type": "uint256"
        },
        {
          "name": "",
          "type": "string"
        }
      ],
      "payable": false,
      "stateMutability": "view",
      "type": "function"
    },
    {
      "constant": true,
      "inputs": [
        {
          "name": "_airport",
          "type": "string"
        },
        {
          "name": "_uuid",
          "type": "string"
        }
      ],
      "name": "getWalletStore",
      "outputs": [
        {
          "name": "",
          "type": "bool"
        },
        {
          "name": "",
          "type": "string"
        },
        {
          "name": "",
          "type": "bool"
        },
        {
          "name": "",
          "type": "string"
        }
      ],
      "payable": false,
      "stateMutability": "view",
      "type": "function"
    },
    {
      "constant": true,
      "inputs": [
        {
          "name": "_owner",
          "type": "string"
        },
        {
          "name": "_uuid",
          "type": "string"
        }
      ],
      "name": "isOwnerOf",
      "outputs": [
        {
          "name": "",
          "type": "bool"
        }
      ],
      "payable": false,
      "stateMutability": "view",
      "type": "function"
    },
    {
      "constant": true,
      "inputs": [
        {
          "name": "_uuid",
          "type": "string"
        }
      ],
      "name": "trackLuggage",
      "outputs": [
        {
          "name": "",
          "type": "string"
        },
        {
          "name": "",
          "type": "string"
        }
      ],
      "payable": false,
      "stateMutability": "view",
      "type": "function"
    },
    {
      "constant": true,
      "inputs": [
        {
          "name": "_uuid",
          "type": "string"
        }
      ],
      "name": "locateMyLuggage",
      "outputs": [
        {
          "name": "",
          "type": "string"
        }
      ],
      "payable": false,
      "stateMutability": "view",
      "type": "function"
    }
  ],
  "bytecode": "0x608060405234801561001057600080fd5b5061457e806100206000396000f3fe608060405234801561001057600080fd5b50600436106100935760003560e01c80635993d208116100665780635993d2081461051c5780637a9c0861146106bc578063c0313a26146108a5578063d87ce44014610a8e578063fda030c314610bc257610093565b80630301d7c41461009857806306fdde03146101f4578063394117be146102775780634c4e8582146103b2575b600080fd5b6101f2600480360360608110156100ae57600080fd5b81019080803590602001906401000000008111156100cb57600080fd5b8201836020820111156100dd57600080fd5b803590602001918460018302840111640100000000831117156100ff57600080fd5b91908080601f016020809104026020016040519081016040528093929190818152602001838380828437600081840152601f19601f820116905080830192505050505050509192919290803590602001909291908035906020019064010000000081111561016c57600080fd5b82018360208201111561017e57600080fd5b803590602001918460018302840111640100000000831117156101a057600080fd5b91908080601f016020809104026020016040519081016040528093929190818152602001838380828437600081840152601f19601f820116905080830192505050505050509192919290505050610e0f565b005b6101fc61147d565b6040518080602001828103825283818151815260200191508051906020019080838360005b8381101561023c578082015181840152602081019050610221565b50505050905090810190601f1680156102695780820380516001836020036101000a031916815260200191505b509250505060405180910390f35b6103306004803603602081101561028d57600080fd5b81019080803590602001906401000000008111156102aa57600080fd5b8201836020820111156102bc57600080fd5b803590602001918460018302840111640100000000831117156102de57600080fd5b91908080601f016020809104026020016040519081016040528093929190818152602001838380828437600081840152601f19601f82011690508083019250505050505050919291929050505061151b565b6040518083815260200180602001828103825283818151815260200191508051906020019080838360005b8381101561037657808201518184015260208101905061035b565b50505050905090810190601f1680156103a35780820380516001836020036101000a031916815260200191505b50935050505060405180910390f35b610502600480360360408110156103c857600080fd5b81019080803590602001906401000000008111156103e557600080fd5b8201836020820111156103f757600080fd5b8035906020019184600183028401116401000000008311171561041957600080fd5b91908080601f016020809104026020016040519081016040528093929190818152602001838380828437600081840152601f19601f8201169050808301925050505050505091929192908035906020019064010000000081111561047c57600080fd5b82018360208201111561048e57600080fd5b803590602001918460018302840111640100000000831117156104b057600080fd5b91908080601f016020809104026020016040519081016040528093929190818152602001838380828437600081840152601f19601f82011690508083019250505050505050919291929050505061169d565b604051808215151515815260200191505060405180910390f35b6105d56004803603602081101561053257600080fd5b810190808035906020019064010000000081111561054f57600080fd5b82018360208201111561056157600080fd5b8035906020019184600183028401116401000000008311171561058357600080fd5b91908080601f016020809104026020016040519081016040528093929190818152602001838380828437600081840152601f19601f820116905080830192505050505050509192919290505050611883565b604051808060200180602001838103835285818151815260200191508051906020019080838360005b838110156106195780820151818401526020810190506105fe565b50505050905090810190601f1680156106465780820380516001836020036101000a031916815260200191505b50838103825284818151815260200191508051906020019080838360005b8381101561067f578082015181840152602081019050610664565b50505050905090810190601f1680156106ac5780820380516001836020036101000a031916815260200191505b5094505050505060405180910390f35b6108a3600480360360608110156106d257600080fd5b81019080803590602001906401000000008111156106ef57600080fd5b82018360208201111561070157600080fd5b8035906020019184600183028401116401000000008311171561072357600080fd5b91908080601f016020809104026020016040519081016040528093929190818152602001838380828437600081840152601f19601f8201169050808301925050505050505091929192908035906020019064010000000081111561078657600080fd5b82018360208201111561079857600080fd5b803590602001918460018302840111640100000000831117156107ba57600080fd5b91908080601f016020809104026020016040519081016040528093929190818152602001838380828437600081840152601f19601f8201169050808301925050505050505091929192908035906020019064010000000081111561081d57600080fd5b82018360208201111561082f57600080fd5b8035906020019184600183028401116401000000008311171561085157600080fd5b91908080601f016020809104026020016040519081016040528093929190818152602001838380828437600081840152601f19601f82011690508083019250505050505050919291929050505061246f565b005b610a8c600480360360608110156108bb57600080fd5b81019080803590602001906401000000008111156108d857600080fd5b8201836020820111156108ea57600080fd5b8035906020019184600183028401116401000000008311171561090c57600080fd5b91908080601f016020809104026020016040519081016040528093929190818152602001838380828437600081840152601f19601f8201169050808301925050505050505091929192908035906020019064010000000081111561096f57600080fd5b82018360208201111561098157600080fd5b803590602001918460018302840111640100000000831117156109a357600080fd5b91908080601f016020809104026020016040519081016040528093929190818152602001838380828437600081840152601f19601f82011690508083019250505050505050919291929080359060200190640100000000811115610a0657600080fd5b820183602082011115610a1857600080fd5b80359060200191846001830284011164010000000083111715610a3a57600080fd5b91908080601f016020809104026020016040519081016040528093929190818152602001838380828437600081840152601f19601f82011690508083019250505050505050919291929050505061306c565b005b610b4760048036036020811015610aa457600080fd5b8101908080359060200190640100000000811115610ac157600080fd5b820183602082011115610ad357600080fd5b80359060200191846001830284011164010000000083111715610af557600080fd5b91908080601f016020809104026020016040519081016040528093929190818152602001838380828437600081840152601f19601f820116905080830192505050505050509192919290505050613c69565b6040518080602001828103825283818151815260200191508051906020019080838360005b83811015610b87578082015181840152602081019050610b6c565b50505050905090810190601f168015610bb45780820380516001836020036101000a031916815260200191505b509250505060405180910390f35b610d1260048036036040811015610bd857600080fd5b8101908080359060200190640100000000811115610bf557600080fd5b820183602082011115610c0757600080fd5b80359060200191846001830284011164010000000083111715610c2957600080fd5b91908080601f016020809104026020016040519081016040528093929190818152602001838380828437600081840152601f19601f82011690508083019250505050505050919291929080359060200190640100000000811115610c8c57600080fd5b820183602082011115610c9e57600080fd5b80359060200191846001830284011164010000000083111715610cc057600080fd5b91908080601f016020809104026020016040519081016040528093929190818152602001838380828437600081840152601f19601f820116905080830192505050505050509192919290505050613cc1565b6040518085151515158152602001806020018415151515815260200180602001838103835286818151815260200191508051906020019080838360005b83811015610d6a578082015181840152602081019050610d4f565b50505050905090810190601f168015610d975780820380516001836020036101000a031916815260200191505b50838103825284818151815260200191508051906020019080838360005b83811015610dd0578082015181840152602081019050610db5565b50505050905090810190601f168015610dfd5780820380516001836020036101000a031916815260200191505b50965050505050505060405180910390f35b6000835111610e86576040517f08c379a000000000000000000000000000000000000000000000000000000000815260040180806020018281038252600c8152602001807f496e76616c69642075756964000000000000000000000000000000000000000081525060200191505060405180910390fd5b60008211610efc576040517f08c379a000000000000000000000000000000000000000000000000000000000815260040180806020018281038252600f8152602001807f496e76616c6964205f576569676874000000000000000000000000000000000081525060200191505060405180910390fd5b6000815111610f73576040517f08c379a00000000000000000000000000000000000000000000000000000000081526004018080602001828103825260178152602001807f496e76616c696420696e697469616c20616972706f727400000000000000000081525060200191505060405180910390fd5b6001836040518082805190602001908083835b60208310610fa95780518252602082019150602081019050602083039250610f86565b6001836020036101000a038019825116818451168082178552505050505050905001915050908152602001604051809103902060010160009054906101000a900460ff161561111c577ff2d52c968c2b790a14350167785f9237db696cdd049c8d18575ac161147a92d1818460405180806020018060200180602001848103845286818151815260200191508051906020019080838360005b8381101561105d578082015181840152602081019050611042565b50505050905090810190601f16801561108a5780820380516001836020036101000a031916815260200191505b50848103835285818151815260200191508051906020019080838360005b838110156110c35780820151818401526020810190506110a8565b50505050905090810190601f1680156110f05780820380516001836020036101000a031916815260200191505b508481038252602581526020018061450a602591396040019550505050505060405180910390a1611478565b6040518060600160405280838152602001600115158152602001828152506001846040518082805190602001908083835b60208310611170578051825260208201915060208101905060208303925061114d565b6001836020036101000a03801982511681845116808217855250505050505090500191505090815260200160405180910390206000820151816000015560208201518160010160006101000a81548160ff02191690831515021790555060408201518160020190805190602001906111e9929190614392565b509050506111f5614412565b60008160000190151590811515815250506001816040019015159081151581525050806002836040518082805190602001908083835b6020831061124e578051825260208201915060208101905060208303925061122b565b6001836020036101000a0380198251168184511680821785525050505050509050019150509081526020016040518091039020856040518082805190602001908083835b602083106112b55780518252602082019150602081019050602083039250611292565b6001836020036101000a038019825116818451168082178552505050505050905001915050908152602001604051809103902060008201518160000160006101000a81548160ff0219169083151502179055506020820151816001019080519060200190611324929190614392565b5060408201518160020160006101000a81548160ff0219169083151502179055506060820151816003019080519060200190611361929190614392565b509050507faeccdef1af2145341bc50a57d50bfef34f7da0c75feb65c42f0261280c438f81828585604051808060200180602001848152602001838103835286818151815260200191508051906020019080838360005b838110156113d35780820151818401526020810190506113b8565b50505050905090810190601f1680156114005780820380516001836020036101000a031916815260200191505b50838103825285818151815260200191508051906020019080838360005b8381101561143957808201518184015260208101905061141e565b50505050905090810190601f1680156114665780820380516001836020036101000a031916815260200191505b509550505050505060405180910390a1505b505050565b60008054600181600116156101000203166002900480601f0160208091040260200160405190810160405280929190818152602001828054600181600116156101000203166002900480156115135780601f106114e857610100808354040283529160200191611513565b820191906000526020600020905b8154815290600101906020018083116114f657829003601f168201915b505050505081565b600060606001836040518082805190602001908083835b602083106115555780518252602082019150602081019050602083039250611532565b6001836020036101000a0380198251168184511680821785525050505050509050019150509081526020016040518091039020600001546001846040518082805190602001908083835b602083106115c2578051825260208201915060208101905060208303925061159f565b6001836020036101000a0380198251168184511680821785525050505050509050019150509081526020016040518091039020600201808054600181600116156101000203166002900480601f01602080910402602001604051908101604052809291908181526020018280546001816001161561010002031660029004801561168d5780601f106116625761010080835404028352916020019161168d565b820191906000526020600020905b81548152906001019060200180831161167057829003601f168201915b5050505050905091509150915091565b60006002836040518082805190602001908083835b602083106116d557805182526020820191506020810190506020830392506116b2565b6001836020036101000a0380198251168184511680821785525050505050509050019150509081526020016040518091039020826040518082805190602001908083835b6020831061173c5780518252602082019150602081019050602083039250611719565b6001836020036101000a038019825116818451168082178552505050505050905001915050908152602001604051809103902060020160009054906101000a900460ff16801561186a57506002836040518082805190602001908083835b602083106117bd578051825260208201915060208101905060208303925061179a565b6001836020036101000a0380198251168184511680821785525050505050509050019150509081526020016040518091039020826040518082805190602001908083835b602083106118245780518252602082019150602081019050602083039250611801565b6001836020036101000a038019825116818451168082178552505050505050905001915050908152602001604051809103902060000160009054906101000a900460ff16155b15611878576001905061187d565b600090505b92915050565b60608060606001846040518082805190602001908083835b602083106118be578051825260208201915060208101905060208303925061189b565b6001836020036101000a03801982511681845116808217855250505050505090500191505090815260200160405180910390206002018054600181600116156101000203166002900480601f0160208091040260200160405190810160405280929190818152602001828054600181600116156101000203166002900480156119885780601f1061195d57610100808354040283529160200191611988565b820191906000526020600020905b81548152906001019060200180831161196b57829003601f168201915b50505050509050606060405180602001604052806000815250905060606040518060200160405280600081525090506119bf614412565b60026001886040518082805190602001908083835b602083106119f757805182526020820191506020810190506020830392506119d4565b6001836020036101000a03801982511681845116808217855250505050505090500191505090815260200160405180910390206002016040518082805460018160011615610100020316600290048015611a885780601f10611a66576101008083540402835291820191611a88565b820191906000526020600020905b815481529060010190602001808311611a74575b50509150509081526020016040518091039020876040518082805190602001908083835b60208310611acf5780518252602082019150602081019050602083039250611aac565b6001836020036101000a03801982511681845116808217855250505050505090500191505090815260200160405180910390206040518060800160405290816000820160009054906101000a900460ff16151515158152602001600182018054600181600116156101000203166002900480601f016020809104026020016040519081016040528092919081815260200182805460018160011615610100020316600290048015611bc15780601f10611b9657610100808354040283529160200191611bc1565b820191906000526020600020905b815481529060010190602001808311611ba457829003601f168201915b505050505081526020016002820160009054906101000a900460ff16151515158152602001600382018054600181600116156101000203166002900480601f016020809104026020016040519081016040528092919081815260200182805460018160011615610100020316600290048015611c7e5780601f10611c5357610100808354040283529160200191611c7e565b820191906000526020600020905b815481529060010190602001808311611c6157829003601f168201915b5050505050815250509050611d2e604051806020016040528060008152506040518060400160405280601481526020017f4c756767616765207265636569766564206174200000000000000000000000008152508660405180602001604052806000815250604051806020016040528060008152506040518060400160405280600181526020017f0a0000000000000000000000000000000000000000000000000000000000000081525061417a565b9150611d7a83836040518060200160405280600081525060405180602001604052806000815250604051806020016040528060008152506040518060200160405280600081525061417a565b92505b80600001511561246057611e47604051806020016040528060008152506040518060400160405280601281526020017f4c7567676167652073656e742066726f6d200000000000000000000000000000815250866040518060400160405280600481526020017f20746f200000000000000000000000000000000000000000000000000000000081525085602001516040518060400160405280600181526020017f0a0000000000000000000000000000000000000000000000000000000000000081525061417a565b9150611e9383836040518060200160405280600081525060405180602001604052806000815250604051806020016040528060008152506040518060200160405280600081525061417a565b9250600281602001516040518082805190602001908083835b60208310611ecf5780518252602082019150602081019050602083039250611eac565b6001836020036101000a0380198251168184511680821785525050505050509050019150509081526020016040518091039020876040518082805190602001908083835b60208310611f365780518252602082019150602081019050602083039250611f13565b6001836020036101000a038019825116818451168082178552505050505050905001915050908152602001604051809103902060020160009054906101000a900460ff16156121fd576121ae604051806020016040528060008152506040518060400160405280601481526020017f4c7567676167652072656365697665642061742000000000000000000000000081525083602001516040518060400160405280600681526020017f2066726f6d200000000000000000000000000000000000000000000000000000815250600286602001516040518082805190602001908083835b6020831061203d578051825260208201915060208101905060208303925061201a565b6001836020036101000a03801982511681845116808217855250505050505090500191505090815260200160405180910390208c6040518082805190602001908083835b602083106120a45780518252602082019150602081019050602083039250612081565b6001836020036101000a03801982511681845116808217855250505050505090500191505090815260200160405180910390206003018054600181600116156101000203166002900480601f01602080910402602001604051908101604052809291908181526020018280546001816001161561010002031660029004801561216e5780601f106121435761010080835404028352916020019161216e565b820191906000526020600020905b81548152906001019060200180831161215157829003601f168201915b50505050506040518060400160405280600181526020017f0a0000000000000000000000000000000000000000000000000000000000000081525061417a565b91506121fa83836040518060200160405280600081525060405180602001604052806000815250604051806020016040528060008152506040518060200160405280600081525061417a565b92505b806020015193506002846040518082805190602001908083835b6020831061223a5780518252602082019150602081019050602083039250612217565b6001836020036101000a0380198251168184511680821785525050505050509050019150509081526020016040518091039020876040518082805190602001908083835b602083106122a1578051825260208201915060208101905060208303925061227e565b6001836020036101000a03801982511681845116808217855250505050505090500191505090815260200160405180910390206040518060800160405290816000820160009054906101000a900460ff16151515158152602001600182018054600181600116156101000203166002900480601f0160208091040260200160405190810160405280929190818152602001828054600181600116156101000203166002900480156123935780601f1061236857610100808354040283529160200191612393565b820191906000526020600020905b81548152906001019060200180831161237657829003601f168201915b505050505081526020016002820160009054906101000a900460ff16151515158152602001600382018054600181600116156101000203166002900480601f0160208091040260200160405190810160405280929190818152602001828054600181600116156101000203166002900480156124505780601f1061242557610100808354040283529160200191612450565b820191906000526020600020905b81548152906001019060200180831161243357829003601f168201915b5050505050815250509050611d7d565b82829550955050505050915091565b60008351116124e6576040517f08c379a00000000000000000000000000000000000000000000000000000000081526004018080602001828103825260168152602001807f496e76616c696420736f7572636520616972706f72740000000000000000000081525060200191505060405180910390fd5b600082511161255d576040517f08c379a000000000000000000000000000000000000000000000000000000000815260040180806020018281038252601b8152602001807f496e76616c69642064657374696e6174696f6e20616972706f7274000000000081525060200191505060405180910390fd5b60008151116125d4576040517f08c379a000000000000000000000000000000000000000000000000000000000815260040180806020018281038252600c8152602001807f496e76616c69642075756964000000000000000000000000000000000000000081525060200191505060405180910390fd5b6001816040518082805190602001908083835b6020831061260a57805182526020820191506020810190506020830392506125e7565b6001836020036101000a038019825116818451168082178552505050505050905001915050908152602001604051809103902060010160009054906101000a900460ff16612806577f0c9b374f8c5c396fbb693c986c13fa624fcfc2ebebeff0fcf2fd8c7396626d268383836040518080602001806020018060200180602001858103855288818151815260200191508051906020019080838360005b838110156126c25780820151818401526020810190506126a7565b50505050905090810190601f1680156126ef5780820380516001836020036101000a031916815260200191505b50858103845287818151815260200191508051906020019080838360005b8381101561272857808201518184015260208101905061270d565b50505050905090810190601f1680156127555780820380516001836020036101000a031916815260200191505b50858103835286818151815260200191508051906020019080838360005b8381101561278e578082015181840152602081019050612773565b50505050905090810190601f1680156127bb5780820380516001836020036101000a031916815260200191505b508581038252601f8152602001807f4e6f20617373657420776974682074686973205f55554944206578697374730081525060200197505050505050505060405180910390a1613067565b6002836040518082805190602001908083835b6020831061283c5780518252602082019150602081019050602083039250612819565b6001836020036101000a0380198251168184511680821785525050505050509050019150509081526020016040518091039020816040518082805190602001908083835b602083106128a35780518252602082019150602081019050602083039250612880565b6001836020036101000a038019825116818451168082178552505050505050905001915050908152602001604051809103902060000160009054906101000a900460ff16612a9f577f0c9b374f8c5c396fbb693c986c13fa624fcfc2ebebeff0fcf2fd8c7396626d268383836040518080602001806020018060200180602001858103855288818151815260200191508051906020019080838360005b8381101561295b578082015181840152602081019050612940565b50505050905090810190601f1680156129885780820380516001836020036101000a031916815260200191505b50858103845287818151815260200191508051906020019080838360005b838110156129c15780820151818401526020810190506129a6565b50505050905090810190601f1680156129ee5780820380516001836020036101000a031916815260200191505b50858103835286818151815260200191508051906020019080838360005b83811015612a27578082015181840152602081019050612a0c565b50505050905090810190601f168015612a545780820380516001836020036101000a031916815260200191505b508581038252601f8152602001807f53656e64657220646964206e6f742073656e6420746865206c7567676167650081525060200197505050505050505060405180910390a1613067565b6002826040518082805190602001908083835b60208310612ad55780518252602082019150602081019050602083039250612ab2565b6001836020036101000a0380198251168184511680821785525050505050509050019150509081526020016040518091039020816040518082805190602001908083835b60208310612b3c5780518252602082019150602081019050602083039250612b19565b6001836020036101000a038019825116818451168082178552505050505050905001915050908152602001604051809103902060020160009054906101000a900460ff1615612d1c577f0c9b374f8c5c396fbb693c986c13fa624fcfc2ebebeff0fcf2fd8c7396626d268383836040518080602001806020018060200180602001858103855288818151815260200191508051906020019080838360005b83811015612bf5578082015181840152602081019050612bda565b50505050905090810190601f168015612c225780820380516001836020036101000a031916815260200191505b50858103845287818151815260200191508051906020019080838360005b83811015612c5b578082015181840152602081019050612c40565b50505050905090810190601f168015612c885780820380516001836020036101000a031916815260200191505b50858103835286818151815260200191508051906020019080838360005b83811015612cc1578082015181840152602081019050612ca6565b50505050905090810190601f168015612cee5780820380516001836020036101000a031916815260200191505b50858103825260268152602001806144e46026913960400197505050505050505060405180910390a1613067565b60016002836040518082805190602001908083835b60208310612d545780518252602082019150602081019050602083039250612d31565b6001836020036101000a0380198251168184511680821785525050505050509050019150509081526020016040518091039020826040518082805190602001908083835b60208310612dbb5780518252602082019150602081019050602083039250612d98565b6001836020036101000a038019825116818451168082178552505050505050905001915050908152602001604051809103902060020160006101000a81548160ff021916908315150217905550826002836040518082805190602001908083835b60208310612e3f5780518252602082019150602081019050602083039250612e1c565b6001836020036101000a0380198251168184511680821785525050505050509050019150509081526020016040518091039020826040518082805190602001908083835b60208310612ea65780518252602082019150602081019050602083039250612e83565b6001836020036101000a03801982511681845116808217855250505050505090500191505090815260200160405180910390206003019080519060200190612eef92919061443e565b507ff859c2f8a577004107ab633d3b5f401f98c2391bdf8ce0a755dc94a1bed901e383838360405180806020018060200180602001848103845287818151815260200191508051906020019080838360005b83811015612f5c578082015181840152602081019050612f41565b50505050905090810190601f168015612f895780820380516001836020036101000a031916815260200191505b50848103835286818151815260200191508051906020019080838360005b83811015612fc2578082015181840152602081019050612fa7565b50505050905090810190601f168015612fef5780820380516001836020036101000a031916815260200191505b50848103825285818151815260200191508051906020019080838360005b8381101561302857808201518184015260208101905061300d565b50505050905090810190601f1680156130555780820380516001836020036101000a031916815260200191505b50965050505050505060405180910390a15b505050565b60008351116130e3576040517f08c379a00000000000000000000000000000000000000000000000000000000081526004018080602001828103825260168152602001807f496e76616c696420736f7572636520616972706f72740000000000000000000081525060200191505060405180910390fd5b600082511161315a576040517f08c379a000000000000000000000000000000000000000000000000000000000815260040180806020018281038252601b8152602001807f496e76616c69642064657374696e6174696f6e20616972706f7274000000000081525060200191505060405180910390fd5b60008151116131d1576040517f08c379a000000000000000000000000000000000000000000000000000000000815260040180806020018281038252600c8152602001807f496e76616c69642075756964000000000000000000000000000000000000000081525060200191505060405180910390fd5b6001816040518082805190602001908083835b6020831061320757805182526020820191506020810190506020830392506131e4565b6001836020036101000a038019825116818451168082178552505050505050905001915050908152602001604051809103902060010160009054906101000a900460ff16613403577f0c9b374f8c5c396fbb693c986c13fa624fcfc2ebebeff0fcf2fd8c7396626d268383836040518080602001806020018060200180602001858103855288818151815260200191508051906020019080838360005b838110156132bf5780820151818401526020810190506132a4565b50505050905090810190601f1680156132ec5780820380516001836020036101000a031916815260200191505b50858103845287818151815260200191508051906020019080838360005b8381101561332557808201518184015260208101905061330a565b50505050905090810190601f1680156133525780820380516001836020036101000a031916815260200191505b50858103835286818151815260200191508051906020019080838360005b8381101561338b578082015181840152602081019050613370565b50505050905090810190601f1680156133b85780820380516001836020036101000a031916815260200191505b50858103825260208152602001807f4e6f20617373657420776974682074686973205f55554944206578697374732e81525060200197505050505050505060405180910390a1613c64565b6002836040518082805190602001908083835b602083106134395780518252602082019150602081019050602083039250613416565b6001836020036101000a0380198251168184511680821785525050505050509050019150509081526020016040518091039020816040518082805190602001908083835b602083106134a0578051825260208201915060208101905060208303925061347d565b6001836020036101000a038019825116818451168082178552505050505050905001915050908152602001604051809103902060020160009054906101000a900460ff1661367f577f0c9b374f8c5c396fbb693c986c13fa624fcfc2ebebeff0fcf2fd8c7396626d268383836040518080602001806020018060200180602001858103855288818151815260200191508051906020019080838360005b8381101561355857808201518184015260208101905061353d565b50505050905090810190601f1680156135855780820380516001836020036101000a031916815260200191505b50858103845287818151815260200191508051906020019080838360005b838110156135be5780820151818401526020810190506135a3565b50505050905090810190601f1680156135eb5780820380516001836020036101000a031916815260200191505b50858103835286818151815260200191508051906020019080838360005b83811015613624578082015181840152602081019050613609565b50505050905090810190601f1680156136515780820380516001836020036101000a031916815260200191505b508581038252602481526020018061452f6024913960400197505050505050505060405180910390a1613c64565b6002836040518082805190602001908083835b602083106136b55780518252602082019150602081019050602083039250613692565b6001836020036101000a0380198251168184511680821785525050505050509050019150509081526020016040518091039020816040518082805190602001908083835b6020831061371c57805182526020820191506020810190506020830392506136f9565b6001836020036101000a038019825116818451168082178552505050505050905001915050908152602001604051809103902060000160009054906101000a900460ff1615613919577f0c9b374f8c5c396fbb693c986c13fa624fcfc2ebebeff0fcf2fd8c7396626d268383836040518080602001806020018060200180602001858103855288818151815260200191508051906020019080838360005b838110156137d55780820151818401526020810190506137ba565b50505050905090810190601f1680156138025780820380516001836020036101000a031916815260200191505b50858103845287818151815260200191508051906020019080838360005b8381101561383b578082015181840152602081019050613820565b50505050905090810190601f1680156138685780820380516001836020036101000a031916815260200191505b50858103835286818151815260200191508051906020019080838360005b838110156138a1578082015181840152602081019050613886565b50505050905090810190601f1680156138ce5780820380516001836020036101000a031916815260200191505b50858103825260208152602001807f53656e64657220616c72656164792073656e7420746865206c7567676167652e81525060200197505050505050505060405180910390a1613c64565b60016002846040518082805190602001908083835b60208310613951578051825260208201915060208101905060208303925061392e565b6001836020036101000a0380198251168184511680821785525050505050509050019150509081526020016040518091039020826040518082805190602001908083835b602083106139b85780518252602082019150602081019050602083039250613995565b6001836020036101000a038019825116818451168082178552505050505050905001915050908152602001604051809103902060000160006101000a81548160ff021916908315150217905550816002846040518082805190602001908083835b60208310613a3c5780518252602082019150602081019050602083039250613a19565b6001836020036101000a0380198251168184511680821785525050505050509050019150509081526020016040518091039020826040518082805190602001908083835b60208310613aa35780518252602082019150602081019050602083039250613a80565b6001836020036101000a03801982511681845116808217855250505050505090500191505090815260200160405180910390206001019080519060200190613aec92919061443e565b507ff859c2f8a577004107ab633d3b5f401f98c2391bdf8ce0a755dc94a1bed901e383838360405180806020018060200180602001848103845287818151815260200191508051906020019080838360005b83811015613b59578082015181840152602081019050613b3e565b50505050905090810190601f168015613b865780820380516001836020036101000a031916815260200191505b50848103835286818151815260200191508051906020019080838360005b83811015613bbf578082015181840152602081019050613ba4565b50505050905090810190601f168015613bec5780820380516001836020036101000a031916815260200191505b50848103825285818151815260200191508051906020019080838360005b83811015613c25578082015181840152602081019050613c0a565b50505050905090810190601f168015613c525780820380516001836020036101000a031916815260200191505b50965050505050505060405180910390a15b505050565b6060806040518060400160405280600181526020017f200000000000000000000000000000000000000000000000000000000000000081525090506060613caf84611883565b80925081935050508092505050919050565b60006060600060606002866040518082805190602001908083835b60208310613cff5780518252602082019150602081019050602083039250613cdc565b6001836020036101000a0380198251168184511680821785525050505050509050019150509081526020016040518091039020856040518082805190602001908083835b60208310613d665780518252602082019150602081019050602083039250613d43565b6001836020036101000a038019825116818451168082178552505050505050905001915050908152602001604051809103902060000160009054906101000a900460ff166002876040518082805190602001908083835b60208310613de05780518252602082019150602081019050602083039250613dbd565b6001836020036101000a0380198251168184511680821785525050505050509050019150509081526020016040518091039020866040518082805190602001908083835b60208310613e475780518252602082019150602081019050602083039250613e24565b6001836020036101000a03801982511681845116808217855250505050505090500191505090815260200160405180910390206001016002886040518082805190602001908083835b60208310613eb35780518252602082019150602081019050602083039250613e90565b6001836020036101000a0380198251168184511680821785525050505050509050019150509081526020016040518091039020876040518082805190602001908083835b60208310613f1a5780518252602082019150602081019050602083039250613ef7565b6001836020036101000a038019825116818451168082178552505050505050905001915050908152602001604051809103902060020160009054906101000a900460ff166002896040518082805190602001908083835b60208310613f945780518252602082019150602081019050602083039250613f71565b6001836020036101000a0380198251168184511680821785525050505050509050019150509081526020016040518091039020886040518082805190602001908083835b60208310613ffb5780518252602082019150602081019050602083039250613fd8565b6001836020036101000a0380198251168184511680821785525050505050509050019150509081526020016040518091039020600301828054600181600116156101000203166002900480601f0160208091040260200160405190810160405280929190818152602001828054600181600116156101000203166002900480156140c65780601f1061409b576101008083540402835291602001916140c6565b820191906000526020600020905b8154815290600101906020018083116140a957829003601f168201915b50505050509250808054600181600116156101000203166002900480601f0160208091040260200160405190810160405280929190818152602001828054600181600116156101000203166002900480156141625780601f1061413757610100808354040283529160200191614162565b820191906000526020600020905b81548152906001019060200180831161414557829003601f168201915b50505050509050935093509350935092959194509250565b60608686868686866040516020018087805190602001908083835b602083106141b85780518252602082019150602081019050602083039250614195565b6001836020036101000a03801982511681845116808217855250505050505090500186805190602001908083835b6020831061420957805182526020820191506020810190506020830392506141e6565b6001836020036101000a03801982511681845116808217855250505050505090500185805190602001908083835b6020831061425a5780518252602082019150602081019050602083039250614237565b6001836020036101000a03801982511681845116808217855250505050505090500184805190602001908083835b602083106142ab5780518252602082019150602081019050602083039250614288565b6001836020036101000a03801982511681845116808217855250505050505090500183805190602001908083835b602083106142fc57805182526020820191506020810190506020830392506142d9565b6001836020036101000a03801982511681845116808217855250505050505090500182805190602001908083835b6020831061434d578051825260208201915060208101905060208303925061432a565b6001836020036101000a038019825116818451168082178552505050505050905001965050505050505060405160208183030381529060405290509695505050505050565b828054600181600116156101000203166002900490600052602060002090601f016020900481019282601f106143d357805160ff1916838001178555614401565b82800160010185558215614401579182015b828111156144005782518255916020019190600101906143e5565b5b50905061440e91906144be565b5090565b604051806080016040528060001515815260200160608152602001600015158152602001606081525090565b828054600181600116156101000203166002900490600052602060002090601f016020900481019282601f1061447f57805160ff19168380011785556144ad565b828001600101855582156144ad579182015b828111156144ac578251825591602001919060010190614491565b5b5090506144ba91906144be565b5090565b6144e091905b808211156144dc5760008160009055506001016144c4565b5090565b9056fe526563656976657220616c72656164792072656365697665642074686973206c756767616765417373657420776974682074686973205f5555494420616c7265616479206578697374732e53656e64657220646964206e6f7420726563656976652074686973206c7567676167652ea165627a7a723058208c0d894f64574090fd1841ff22e676957b44b72367e99adb86164aaa9d4a3c2c0029",
  "source": "pragma solidity ^0.5.0;\n\ncontract addLuggage2{\n    string public name;\n    mapping(string => Luggage) private luggageStore;\n    mapping(string => mapping(string => sentreceived)) private walletStore;\n\n    struct Luggage {\n        uint weight;\n        bool initialized;\n        string airport_initial;\n    }\n\n    struct sentreceived {\n        bool sent;\n        string airport_sent;\n        bool received;\n        string airport_received;\n    }\n\n    event AssetCreate(string account, string uuid, uint weight);\n    event RejectCreate(string account, string uuid, string message);\n    event AssetTransfer(string from, string to, string uuid);\n    event RejectTransfer(string from, string to, string uuid, string message);\n\n    function createAsset(string memory _uuid, uint _weight, string memory _airport_initial) public {\n\n        // Require valid _uuid\n        require(bytes(_uuid).length>0, \"Invalid uuid\");\n        //Require a valid _weight\n        require(_weight>0,\"Invalid _Weight\");\n        //Require a valid initial airport\n        require(bytes(_airport_initial).length>0,\"Invalid initial airport\");\n\n        if(luggageStore[_uuid].initialized) {\n            emit RejectCreate(_airport_initial, _uuid, \"Asset with this _UUID already exists.\");\n            return;\n        }\n\n        luggageStore[_uuid] = Luggage(_weight, true, _airport_initial);\n        sentreceived memory a;\n        a.sent = false;\n        a.received = true;\n        walletStore[_airport_initial][_uuid] = a;\n        emit AssetCreate(_airport_initial, _uuid, _weight);\n    }\n    \n    function sendAsset(string memory _airport_from, string memory _airport_to, string memory _uuid) public {\n        // Require valid _airport_from\n        require(bytes(_airport_from).length>0,\"Invalid source airport\");\n        // Require valid _airport_to\n        require(bytes(_airport_to).length>0,\"Invalid destination airport\");\n        // Require valid _uuid\n        require(bytes(_uuid).length>0, \"Invalid uuid\");\n\n        if(!luggageStore[_uuid].initialized) {\n            emit RejectTransfer(_airport_from, _airport_to, _uuid, \"No asset with this _UUID exists.\");\n            return;\n        }\n        if(!walletStore[_airport_from][_uuid].received) {\n            emit RejectTransfer(_airport_from, _airport_to, _uuid, \"Sender did not receive this luggage.\");\n            return;\n        }\n        if(walletStore[_airport_from][_uuid].sent) {\n            emit RejectTransfer(_airport_from, _airport_to, _uuid, \"Sender already sent the luggage.\");\n            return;\n        }\n        walletStore[_airport_from][_uuid].sent = true;\n        walletStore[_airport_from][_uuid].airport_sent = _airport_to;\n        // walletStore[to][_uuid] = true;\n        emit AssetTransfer(_airport_from, _airport_to, _uuid);\n    }\n\n    function receiveAsset(string memory _airport_from, string memory _airport_to, string memory _uuid) public {\n        // Require valid _airport_from\n        require(bytes(_airport_from).length>0,\"Invalid source airport\");\n        // Require valid _airport_to\n        require(bytes(_airport_to).length>0,\"Invalid destination airport\");\n        // Require valid _uuid\n        require(bytes(_uuid).length>0, \"Invalid uuid\");\n\n        if(!luggageStore[_uuid].initialized) {\n            emit RejectTransfer(_airport_from, _airport_to, _uuid, \"No asset with this _UUID exists\");\n            return;\n        }\n        if(!walletStore[_airport_from][_uuid].sent) {\n            emit RejectTransfer(_airport_from, _airport_to, _uuid, \"Sender did not send the luggage\");\n            return;\n        }\n        if(walletStore[_airport_to][_uuid].received) {\n            emit RejectTransfer(_airport_from, _airport_to, _uuid, \"Receiver already received this luggage\");\n            return;\n        }\n        walletStore[_airport_to][_uuid].received = true;\n        walletStore[_airport_to][_uuid].airport_received = _airport_from;\n        // walletStore[to][_uuid] = true;\n        emit AssetTransfer(_airport_from, _airport_to, _uuid);\n    }\n\n    function getAssetByUUID(string memory _uuid) public view returns (uint, string memory) {\n        return (luggageStore[_uuid].weight, luggageStore[_uuid].airport_initial);\n    }\n\n    function getWalletStore(string memory _airport, string memory _uuid) public view returns (bool, string memory, bool, string memory) {\n        return (walletStore[_airport][_uuid].sent, walletStore[_airport][_uuid].airport_sent, walletStore[_airport][_uuid].received, walletStore[_airport][_uuid].airport_received);\n    }\n\n    function isOwnerOf(string memory _owner, string memory _uuid) public view returns (bool) {\n        if(walletStore[_owner][_uuid].received && !walletStore[_owner][_uuid].sent) {\n            return true;\n        }\n        return false;\n    }\n\n    function append(string memory a, string memory b, string memory c, string memory d, string memory e, string memory f) internal pure returns (string memory) {\n        return string(abi.encodePacked(a, b, c, d, e, f));\n    }\n\n    function trackLuggage(string memory _uuid) public view returns (string memory, string memory)  {\n        string memory cur_airport = luggageStore[_uuid].airport_initial;\n        string memory output = \"\";\n        string memory temp_output = \"\";\n        sentreceived memory cur_sr = walletStore[luggageStore[_uuid].airport_initial][_uuid];\n        temp_output = append(\"\", \"Luggage received at \",cur_airport,\"\",\"\",\"\\n\");\n        output = append(output, temp_output, \"\", \"\", \"\", \"\");\n        while(cur_sr.sent) {\n            temp_output = append(\"\", \"Luggage sent from \",cur_airport,\" to \",cur_sr.airport_sent,\"\\n\");\n            output = append(output, temp_output, \"\", \"\", \"\", \"\");\n            if(walletStore[cur_sr.airport_sent][_uuid].received) {\n                temp_output = append(\"\", \"Luggage received at \",cur_sr.airport_sent,\" from \",walletStore[cur_sr.airport_sent][_uuid].airport_received,\"\\n\");\n                output = append(output, temp_output, \"\", \"\", \"\", \"\");\n            }\n            cur_airport = cur_sr.airport_sent;\n            cur_sr = walletStore[cur_airport][_uuid];\n        }\n        return (output, temp_output);\n    }\n\n    function locateMyLuggage(string memory _uuid) public view returns (string memory) {\n        string memory output = \" \";\n        // bool received;\n        string memory temp_output;\n        (output, temp_output) = trackLuggage(_uuid);\n        return temp_output;\n        // if(received) {\n        //     output = append(\"Luggage received at \", cur_airport, \"\", \"\", \"\", \"\");\n        //     return output;\n        // }\n\n        // else {\n        //     output = append(\"The Luggage is still on route from \", airport_received, \" to \", cur_airport, \"\\n\", \"\");\n        //     return output;\n        // }\n\n    }\n}\n\n// addluggage2 = await addLuggage2.deployed()\n// ac = await web3.eth.getAccounts()\n// addluggage2.createAsset(\"123\", 123, \"Bangalore\")\n// addluggage2.isOwnerOf(\"Bangalore\", \"123\")\n// addluggage2.sendAsset(\"Bangalore\", \"Chennai\", \"123\")\n// addluggage2.isOwnerOf(\"Chennai\", \"123\")\n// addluggage2.receiveAsset(\"Bangalore\", \"Chennai\", \"123\")\n// addluggage2.isOwnerOf(\"Chennai\", \"123\")\n// addluggage2.trackLuggage(\"123\")\n// addluggage2.locateMyLuggage(\"123\")\n\n// addluggage2.sendAsset(\"Chennai\", \"Mumbai\", \"123\")\n",
  "sourcePath": "/Users/sarnayak/Sam/Blockchain/Ethereum/marketplace/src/contracts/addLuggage2.sol",
  "compiler": {
    "name": "solc",
    "version": "0.5.8+commit.23d335f2.Emscripten.clang"
  },
  "schemaVersion": "3.0.16",
  "updatedAt": "2019-11-08T06:18:27.163Z",
  "devdoc": {
    "methods": {}
  },
  "userdoc": {
    "methods": {}
  }
}