{
  "contractName": "addLuggage2",
  "abi": [
    {
      "constant": true,
      "inputs": [],
      "name": "name",
      "outputs": [
        {
          "name": "",
          "type": "string"
        }
      ],
      "payable": false,
      "stateMutability": "view",
      "type": "function"
    },
    {
      "anonymous": false,
      "inputs": [
        {
          "indexed": false,
          "name": "account",
          "type": "string"
        },
        {
          "indexed": false,
          "name": "uuid",
          "type": "string"
        },
        {
          "indexed": false,
          "name": "weight",
          "type": "uint256"
        }
      ],
      "name": "AssetCreate",
      "type": "event"
    },
    {
      "anonymous": false,
      "inputs": [
        {
          "indexed": false,
          "name": "account",
          "type": "string"
        },
        {
          "indexed": false,
          "name": "uuid",
          "type": "string"
        },
        {
          "indexed": false,
          "name": "message",
          "type": "string"
        }
      ],
      "name": "RejectCreate",
      "type": "event"
    },
    {
      "anonymous": false,
      "inputs": [
        {
          "indexed": false,
          "name": "from",
          "type": "string"
        },
        {
          "indexed": false,
          "name": "to",
          "type": "string"
        },
        {
          "indexed": false,
          "name": "uuid",
          "type": "string"
        }
      ],
      "name": "AssetTransfer",
      "type": "event"
    },
    {
      "anonymous": false,
      "inputs": [
        {
          "indexed": false,
          "name": "from",
          "type": "string"
        },
        {
          "indexed": false,
          "name": "to",
          "type": "string"
        },
        {
          "indexed": false,
          "name": "uuid",
          "type": "string"
        },
        {
          "indexed": false,
          "name": "message",
          "type": "string"
        }
      ],
      "name": "RejectTransfer",
      "type": "event"
    },
    {
      "constant": false,
      "inputs": [
        {
          "name": "_uuid",
          "type": "string"
        },
        {
          "name": "_weight",
          "type": "uint256"
        },
        {
          "name": "_airport_initial",
          "type": "string"
        },
        {
          "name": "_timestamp",
          "type": "string"
        }
      ],
      "name": "createAsset",
      "outputs": [],
      "payable": false,
      "stateMutability": "nonpayable",
      "type": "function"
    },
    {
      "constant": false,
      "inputs": [
        {
          "name": "_airport_from",
          "type": "string"
        },
        {
          "name": "_airport_to",
          "type": "string"
        },
        {
          "name": "_uuid",
          "type": "string"
        },
        {
          "name": "_timestamp",
          "type": "string"
        }
      ],
      "name": "sendAsset",
      "outputs": [],
      "payable": false,
      "stateMutability": "nonpayable",
      "type": "function"
    },
    {
      "constant": false,
      "inputs": [
        {
          "name": "_airport_from",
          "type": "string"
        },
        {
          "name": "_airport_to",
          "type": "string"
        },
        {
          "name": "_uuid",
          "type": "string"
        },
        {
          "name": "_timestamp",
          "type": "string"
        }
      ],
      "name": "receiveAsset",
      "outputs": [],
      "payable": false,
      "stateMutability": "nonpayable",
      "type": "function"
    },
    {
      "constant": true,
      "inputs": [
        {
          "name": "_uuid",
          "type": "string"
        }
      ],
      "name": "getAssetByUUID",
      "outputs": [
        {
          "name": "",
          "type": "uint256"
        },
        {
          "name": "",
          "type": "string"
        }
      ],
      "payable": false,
      "stateMutability": "view",
      "type": "function"
    },
    {
      "constant": true,
      "inputs": [
        {
          "name": "_airport",
          "type": "string"
        },
        {
          "name": "_uuid",
          "type": "string"
        }
      ],
      "name": "getWalletStore",
      "outputs": [
        {
          "name": "",
          "type": "bool"
        },
        {
          "name": "",
          "type": "string"
        },
        {
          "name": "",
          "type": "bool"
        },
        {
          "name": "",
          "type": "string"
        },
        {
          "name": "",
          "type": "string"
        },
        {
          "name": "",
          "type": "string"
        }
      ],
      "payable": false,
      "stateMutability": "view",
      "type": "function"
    },
    {
      "constant": true,
      "inputs": [
        {
          "name": "_owner",
          "type": "string"
        },
        {
          "name": "_uuid",
          "type": "string"
        }
      ],
      "name": "isOwnerOf",
      "outputs": [
        {
          "name": "",
          "type": "bool"
        }
      ],
      "payable": false,
      "stateMutability": "view",
      "type": "function"
    },
    {
      "constant": true,
      "inputs": [
        {
          "name": "_uuid",
          "type": "string"
        }
      ],
      "name": "trackLuggage",
      "outputs": [
        {
          "name": "",
          "type": "string"
        },
        {
          "name": "",
          "type": "string"
        }
      ],
      "payable": false,
      "stateMutability": "view",
      "type": "function"
    },
    {
      "constant": true,
      "inputs": [
        {
          "name": "_uuid",
          "type": "string"
        }
      ],
      "name": "locateMyLuggage",
      "outputs": [
        {
          "name": "",
          "type": "string"
        }
      ],
      "payable": false,
      "stateMutability": "view",
      "type": "function"
    }
  ],
  "bytecode": "0x608060405234801561001057600080fd5b506152d1806100206000396000f3fe608060405234801561001057600080fd5b50600436106100935760003560e01c8063641bfa1011610066578063641bfa101461056057806365f6e1a7146107e0578063a613e234146109d3578063d87ce44014610c53578063fda030c314610d8757610093565b806306fdde0314610098578063394117be1461011b5780634c4e8582146102565780635993d208146103c0575b600080fd5b6100a06110ac565b6040518080602001828103825283818151815260200191508051906020019080838360005b838110156100e05780820151818401526020810190506100c5565b50505050905090810190601f16801561010d5780820380516001836020036101000a031916815260200191505b509250505060405180910390f35b6101d46004803603602081101561013157600080fd5b810190808035906020019064010000000081111561014e57600080fd5b82018360208201111561016057600080fd5b8035906020019184600183028401116401000000008311171561018257600080fd5b91908080601f016020809104026020016040519081016040528093929190818152602001838380828437600081840152601f19601f82011690508083019250505050505050919291929050505061114a565b6040518083815260200180602001828103825283818151815260200191508051906020019080838360005b8381101561021a5780820151818401526020810190506101ff565b50505050905090810190601f1680156102475780820380516001836020036101000a031916815260200191505b50935050505060405180910390f35b6103a66004803603604081101561026c57600080fd5b810190808035906020019064010000000081111561028957600080fd5b82018360208201111561029b57600080fd5b803590602001918460018302840111640100000000831117156102bd57600080fd5b91908080601f016020809104026020016040519081016040528093929190818152602001838380828437600081840152601f19601f8201169050808301925050505050505091929192908035906020019064010000000081111561032057600080fd5b82018360208201111561033257600080fd5b8035906020019184600183028401116401000000008311171561035457600080fd5b91908080601f016020809104026020016040519081016040528093929190818152602001838380828437600081840152601f19601f8201169050808301925050505050505091929192905050506112cc565b604051808215151515815260200191505060405180910390f35b610479600480360360208110156103d657600080fd5b81019080803590602001906401000000008111156103f357600080fd5b82018360208201111561040557600080fd5b8035906020019184600183028401116401000000008311171561042757600080fd5b91908080601f016020809104026020016040519081016040528093929190818152602001838380828437600081840152601f19601f8201169050808301925050505050505091929192905050506114b2565b604051808060200180602001838103835285818151815260200191508051906020019080838360005b838110156104bd5780820151818401526020810190506104a2565b50505050905090810190601f1680156104ea5780820380516001836020036101000a031916815260200191505b50838103825284818151815260200191508051906020019080838360005b83811015610523578082015181840152602081019050610508565b50505050905090810190601f1680156105505780820380516001836020036101000a031916815260200191505b5094505050505060405180910390f35b6107de6004803603608081101561057657600080fd5b810190808035906020019064010000000081111561059357600080fd5b8201836020820111156105a557600080fd5b803590602001918460018302840111640100000000831117156105c757600080fd5b91908080601f016020809104026020016040519081016040528093929190818152602001838380828437600081840152601f19601f8201169050808301925050505050505091929192908035906020019064010000000081111561062a57600080fd5b82018360208201111561063c57600080fd5b8035906020019184600183028401116401000000008311171561065e57600080fd5b91908080601f016020809104026020016040519081016040528093929190818152602001838380828437600081840152601f19601f820116905080830192505050505050509192919290803590602001906401000000008111156106c157600080fd5b8201836020820111156106d357600080fd5b803590602001918460018302840111640100000000831117156106f557600080fd5b91908080601f016020809104026020016040519081016040528093929190818152602001838380828437600081840152601f19601f8201169050808301925050505050505091929192908035906020019064010000000081111561075857600080fd5b82018360208201111561076a57600080fd5b8035906020019184600183028401116401000000008311171561078c57600080fd5b91908080601f016020809104026020016040519081016040528093929190818152602001838380828437600081840152601f19601f8201169050808301925050505050505091929192905050506125a2565b005b6109d1600480360360808110156107f657600080fd5b810190808035906020019064010000000081111561081357600080fd5b82018360208201111561082557600080fd5b8035906020019184600183028401116401000000008311171561084757600080fd5b91908080601f016020809104026020016040519081016040528093929190818152602001838380828437600081840152601f19601f82011690508083019250505050505050919291929080359060200190929190803590602001906401000000008111156108b457600080fd5b8201836020820111156108c657600080fd5b803590602001918460018302840111640100000000831117156108e857600080fd5b91908080601f016020809104026020016040519081016040528093929190818152602001838380828437600081840152601f19601f8201169050808301925050505050505091929192908035906020019064010000000081111561094b57600080fd5b82018360208201111561095d57600080fd5b8035906020019184600183028401116401000000008311171561097f57600080fd5b91908080601f016020809104026020016040519081016040528093929190818152602001838380828437600081840152601f19601f820116905080830192505050505050509192919290505050613288565b005b610c51600480360360808110156109e957600080fd5b8101908080359060200190640100000000811115610a0657600080fd5b820183602082011115610a1857600080fd5b80359060200191846001830284011164010000000083111715610a3a57600080fd5b91908080601f016020809104026020016040519081016040528093929190818152602001838380828437600081840152601f19601f82011690508083019250505050505050919291929080359060200190640100000000811115610a9d57600080fd5b820183602082011115610aaf57600080fd5b80359060200191846001830284011164010000000083111715610ad157600080fd5b91908080601f016020809104026020016040519081016040528093929190818152602001838380828437600081840152601f19601f82011690508083019250505050505050919291929080359060200190640100000000811115610b3457600080fd5b820183602082011115610b4657600080fd5b80359060200191846001830284011164010000000083111715610b6857600080fd5b91908080601f016020809104026020016040519081016040528093929190818152602001838380828437600081840152601f19601f82011690508083019250505050505050919291929080359060200190640100000000811115610bcb57600080fd5b820183602082011115610bdd57600080fd5b80359060200191846001830284011164010000000083111715610bff57600080fd5b91908080601f016020809104026020016040519081016040528093929190818152602001838380828437600081840152601f19601f82011690508083019250505050505050919291929050505061393a565b005b610d0c60048036036020811015610c6957600080fd5b8101908080359060200190640100000000811115610c8657600080fd5b820183602082011115610c9857600080fd5b80359060200191846001830284011164010000000083111715610cba57600080fd5b91908080601f016020809104026020016040519081016040528093929190818152602001838380828437600081840152601f19601f820116905080830192505050505050509192919290505050614620565b6040518080602001828103825283818151815260200191508051906020019080838360005b83811015610d4c578082015181840152602081019050610d31565b50505050905090810190601f168015610d795780820380516001836020036101000a031916815260200191505b509250505060405180910390f35b610ed760048036036040811015610d9d57600080fd5b8101908080359060200190640100000000811115610dba57600080fd5b820183602082011115610dcc57600080fd5b80359060200191846001830284011164010000000083111715610dee57600080fd5b91908080601f016020809104026020016040519081016040528093929190818152602001838380828437600081840152601f19601f82011690508083019250505050505050919291929080359060200190640100000000811115610e5157600080fd5b820183602082011115610e6357600080fd5b80359060200191846001830284011164010000000083111715610e8557600080fd5b91908080601f016020809104026020016040519081016040528093929190818152602001838380828437600081840152601f19601f820116905080830192505050505050509192919290505050614678565b6040518087151515158152602001806020018615151515815260200180602001806020018060200185810385528a818151815260200191508051906020019080838360005b83811015610f37578082015181840152602081019050610f1c565b50505050905090810190601f168015610f645780820380516001836020036101000a031916815260200191505b50858103845288818151815260200191508051906020019080838360005b83811015610f9d578082015181840152602081019050610f82565b50505050905090810190601f168015610fca5780820380516001836020036101000a031916815260200191505b50858103835287818151815260200191508051906020019080838360005b83811015611003578082015181840152602081019050610fe8565b50505050905090810190601f1680156110305780820380516001836020036101000a031916815260200191505b50858103825286818151815260200191508051906020019080838360005b8381101561106957808201518184015260208101905061104e565b50505050905090810190601f1680156110965780820380516001836020036101000a031916815260200191505b509a505050505050505050505060405180910390f35b60008054600181600116156101000203166002900480601f0160208091040260200160405190810160405280929190818152602001828054600181600116156101000203166002900480156111425780601f1061111757610100808354040283529160200191611142565b820191906000526020600020905b81548152906001019060200180831161112557829003601f168201915b505050505081565b600060606001836040518082805190602001908083835b602083106111845780518252602082019150602081019050602083039250611161565b6001836020036101000a0380198251168184511680821785525050505050509050019150509081526020016040518091039020600001546001846040518082805190602001908083835b602083106111f157805182526020820191506020810190506020830392506111ce565b6001836020036101000a0380198251168184511680821785525050505050509050019150509081526020016040518091039020600201808054600181600116156101000203166002900480601f0160208091040260200160405190810160405280929190818152602001828054600181600116156101000203166002900480156112bc5780601f10611291576101008083540402835291602001916112bc565b820191906000526020600020905b81548152906001019060200180831161129f57829003601f168201915b5050505050905091509150915091565b60006002836040518082805190602001908083835b6020831061130457805182526020820191506020810190506020830392506112e1565b6001836020036101000a0380198251168184511680821785525050505050509050019150509081526020016040518091039020826040518082805190602001908083835b6020831061136b5780518252602082019150602081019050602083039250611348565b6001836020036101000a038019825116818451168082178552505050505050905001915050908152602001604051809103902060030160009054906101000a900460ff16801561149957506002836040518082805190602001908083835b602083106113ec57805182526020820191506020810190506020830392506113c9565b6001836020036101000a0380198251168184511680821785525050505050509050019150509081526020016040518091039020826040518082805190602001908083835b602083106114535780518252602082019150602081019050602083039250611430565b6001836020036101000a038019825116818451168082178552505050505050905001915050908152602001604051809103902060000160009054906101000a900460ff16155b156114a757600190506114ac565b600090505b92915050565b60608060606001846040518082805190602001908083835b602083106114ed57805182526020820191506020810190506020830392506114ca565b6001836020036101000a03801982511681845116808217855250505050505090500191505090815260200160405180910390206002018054600181600116156101000203166002900480601f0160208091040260200160405190810160405280929190818152602001828054600181600116156101000203166002900480156115b75780601f1061158c576101008083540402835291602001916115b7565b820191906000526020600020905b81548152906001019060200180831161159a57829003601f168201915b50505050509050606060405180602001604052806000815250905060606040518060200160405280600081525090506115ee6150d7565b60026001886040518082805190602001908083835b602083106116265780518252602082019150602081019050602083039250611603565b6001836020036101000a038019825116818451168082178552505050505050905001915050908152602001604051809103902060020160405180828054600181600116156101000203166002900480156116b75780601f106116955761010080835404028352918201916116b7565b820191906000526020600020905b8154815290600101906020018083116116a3575b50509150509081526020016040518091039020876040518082805190602001908083835b602083106116fe57805182526020820191506020810190506020830392506116db565b6001836020036101000a03801982511681845116808217855250505050505090500191505090815260200160405180910390206040518060c00160405290816000820160009054906101000a900460ff16151515158152602001600182018054600181600116156101000203166002900480601f0160208091040260200160405190810160405280929190818152602001828054600181600116156101000203166002900480156117f05780601f106117c5576101008083540402835291602001916117f0565b820191906000526020600020905b8154815290600101906020018083116117d357829003601f168201915b50505050508152602001600282018054600181600116156101000203166002900480601f0160208091040260200160405190810160405280929190818152602001828054600181600116156101000203166002900480156118925780601f1061186757610100808354040283529160200191611892565b820191906000526020600020905b81548152906001019060200180831161187557829003601f168201915b505050505081526020016003820160009054906101000a900460ff16151515158152602001600482018054600181600116156101000203166002900480601f01602080910402602001604051908101604052809291908181526020018280546001816001161561010002031660029004801561194f5780601f106119245761010080835404028352916020019161194f565b820191906000526020600020905b81548152906001019060200180831161193257829003601f168201915b50505050508152602001600582018054600181600116156101000203166002900480601f0160208091040260200160405190810160405280929190818152602001828054600181600116156101000203166002900480156119f15780601f106119c6576101008083540402835291602001916119f1565b820191906000526020600020905b8154815290600101906020018083116119d457829003601f168201915b5050505050815250509050611adc60405180602001604052806000815250604051806020016040528060008152506040518060400160405280601481526020017f4c75676761676520726563656976656420617420000000000000000000000000815250876040518060400160405280600181526020017f20000000000000000000000000000000000000000000000000000000000000008152508660a00151604051806020016040528060008152506040518060400160405280600181526020017f0a00000000000000000000000000000000000000000000000000000000000000815250614e17565b9150611b488383604051806020016040528060008152506040518060200160405280600081525060405180602001604052806000815250604051806020016040528060008152506040518060200160405280600081525060405180602001604052806000815250614e17565b92505b80600001511561259357611c50604051806020016040528060008152506040518060400160405280601281526020017f4c7567676167652073656e742066726f6d200000000000000000000000000000815250866040518060400160405280600481526020017f20746f200000000000000000000000000000000000000000000000000000000081525085602001516040518060400160405280600181526020017f200000000000000000000000000000000000000000000000000000000000000081525087604001516040518060400160405280600181526020017f0a00000000000000000000000000000000000000000000000000000000000000815250614e17565b9150611cbc8383604051806020016040528060008152506040518060200160405280600081525060405180602001604052806000815250604051806020016040528060008152506040518060200160405280600081525060405180602001604052806000815250614e17565b9250600281602001516040518082805190602001908083835b60208310611cf85780518252602082019150602081019050602083039250611cd5565b6001836020036101000a0380198251168184511680821785525050505050509050019150509081526020016040518091039020876040518082805190602001908083835b60208310611d5f5780518252602082019150602081019050602083039250611d3c565b6001836020036101000a038019825116818451168082178552505050505050905001915050908152602001604051809103902060030160009054906101000a900460ff16156121ec5761217d604051806020016040528060008152506040518060400160405280601481526020017f4c7567676167652072656365697665642061742000000000000000000000000081525083602001516040518060400160405280600681526020017f2066726f6d200000000000000000000000000000000000000000000000000000815250600286602001516040518082805190602001908083835b60208310611e665780518252602082019150602081019050602083039250611e43565b6001836020036101000a03801982511681845116808217855250505050505090500191505090815260200160405180910390208c6040518082805190602001908083835b60208310611ecd5780518252602082019150602081019050602083039250611eaa565b6001836020036101000a03801982511681845116808217855250505050505090500191505090815260200160405180910390206004018054600181600116156101000203166002900480601f016020809104026020016040519081016040528092919081815260200182805460018160011615610100020316600290048015611f975780601f10611f6c57610100808354040283529160200191611f97565b820191906000526020600020905b815481529060010190602001808311611f7a57829003601f168201915b50505050506040518060400160405280600181526020017f2000000000000000000000000000000000000000000000000000000000000000815250600288602001516040518082805190602001908083835b6020831061200c5780518252602082019150602081019050602083039250611fe9565b6001836020036101000a03801982511681845116808217855250505050505090500191505090815260200160405180910390208e6040518082805190602001908083835b602083106120735780518252602082019150602081019050602083039250612050565b6001836020036101000a03801982511681845116808217855250505050505090500191505090815260200160405180910390206005018054600181600116156101000203166002900480601f01602080910402602001604051908101604052809291908181526020018280546001816001161561010002031660029004801561213d5780601f106121125761010080835404028352916020019161213d565b820191906000526020600020905b81548152906001019060200180831161212057829003601f168201915b50505050506040518060400160405280600181526020017f0a00000000000000000000000000000000000000000000000000000000000000815250614e17565b91506121e98383604051806020016040528060008152506040518060200160405280600081525060405180602001604052806000815250604051806020016040528060008152506040518060200160405280600081525060405180602001604052806000815250614e17565b92505b806020015193506002846040518082805190602001908083835b602083106122295780518252602082019150602081019050602083039250612206565b6001836020036101000a0380198251168184511680821785525050505050509050019150509081526020016040518091039020876040518082805190602001908083835b60208310612290578051825260208201915060208101905060208303925061226d565b6001836020036101000a03801982511681845116808217855250505050505090500191505090815260200160405180910390206040518060c00160405290816000820160009054906101000a900460ff16151515158152602001600182018054600181600116156101000203166002900480601f0160208091040260200160405190810160405280929190818152602001828054600181600116156101000203166002900480156123825780601f1061235757610100808354040283529160200191612382565b820191906000526020600020905b81548152906001019060200180831161236557829003601f168201915b50505050508152602001600282018054600181600116156101000203166002900480601f0160208091040260200160405190810160405280929190818152602001828054600181600116156101000203166002900480156124245780601f106123f957610100808354040283529160200191612424565b820191906000526020600020905b81548152906001019060200180831161240757829003601f168201915b505050505081526020016003820160009054906101000a900460ff16151515158152602001600482018054600181600116156101000203166002900480601f0160208091040260200160405190810160405280929190818152602001828054600181600116156101000203166002900480156124e15780601f106124b6576101008083540402835291602001916124e1565b820191906000526020600020905b8154815290600101906020018083116124c457829003601f168201915b50505050508152602001600582018054600181600116156101000203166002900480601f0160208091040260200160405190810160405280929190818152602001828054600181600116156101000203166002900480156125835780601f1061255857610100808354040283529160200191612583565b820191906000526020600020905b81548152906001019060200180831161256657829003601f168201915b5050505050815250509050611b4b565b82829550955050505050915091565b6000845111612619576040517f08c379a00000000000000000000000000000000000000000000000000000000081526004018080602001828103825260168152602001807f496e76616c696420736f7572636520616972706f72740000000000000000000081525060200191505060405180910390fd5b6000835111612690576040517f08c379a000000000000000000000000000000000000000000000000000000000815260040180806020018281038252601b8152602001807f496e76616c69642064657374696e6174696f6e20616972706f7274000000000081525060200191505060405180910390fd5b6000825111612707576040517f08c379a000000000000000000000000000000000000000000000000000000000815260040180806020018281038252600c8152602001807f496e76616c69642075756964000000000000000000000000000000000000000081525060200191505060405180910390fd5b6001826040518082805190602001908083835b6020831061273d578051825260208201915060208101905060208303925061271a565b6001836020036101000a038019825116818451168082178552505050505050905001915050908152602001604051809103902060010160009054906101000a900460ff16612939577f0c9b374f8c5c396fbb693c986c13fa624fcfc2ebebeff0fcf2fd8c7396626d268484846040518080602001806020018060200180602001858103855288818151815260200191508051906020019080838360005b838110156127f55780820151818401526020810190506127da565b50505050905090810190601f1680156128225780820380516001836020036101000a031916815260200191505b50858103845287818151815260200191508051906020019080838360005b8381101561285b578082015181840152602081019050612840565b50505050905090810190601f1680156128885780820380516001836020036101000a031916815260200191505b50858103835286818151815260200191508051906020019080838360005b838110156128c15780820151818401526020810190506128a6565b50505050905090810190601f1680156128ee5780820380516001836020036101000a031916815260200191505b508581038252601f8152602001807f4e6f20617373657420776974682074686973205f55554944206578697374730081525060200197505050505050505060405180910390a1613282565b6002846040518082805190602001908083835b6020831061296f578051825260208201915060208101905060208303925061294c565b6001836020036101000a0380198251168184511680821785525050505050509050019150509081526020016040518091039020826040518082805190602001908083835b602083106129d657805182526020820191506020810190506020830392506129b3565b6001836020036101000a038019825116818451168082178552505050505050905001915050908152602001604051809103902060000160009054906101000a900460ff16612bd2577f0c9b374f8c5c396fbb693c986c13fa624fcfc2ebebeff0fcf2fd8c7396626d268484846040518080602001806020018060200180602001858103855288818151815260200191508051906020019080838360005b83811015612a8e578082015181840152602081019050612a73565b50505050905090810190601f168015612abb5780820380516001836020036101000a031916815260200191505b50858103845287818151815260200191508051906020019080838360005b83811015612af4578082015181840152602081019050612ad9565b50505050905090810190601f168015612b215780820380516001836020036101000a031916815260200191505b50858103835286818151815260200191508051906020019080838360005b83811015612b5a578082015181840152602081019050612b3f565b50505050905090810190601f168015612b875780820380516001836020036101000a031916815260200191505b508581038252601f8152602001807f53656e64657220646964206e6f742073656e6420746865206c7567676167650081525060200197505050505050505060405180910390a1613282565b6002836040518082805190602001908083835b60208310612c085780518252602082019150602081019050602083039250612be5565b6001836020036101000a0380198251168184511680821785525050505050509050019150509081526020016040518091039020826040518082805190602001908083835b60208310612c6f5780518252602082019150602081019050602083039250612c4c565b6001836020036101000a038019825116818451168082178552505050505050905001915050908152602001604051809103902060030160009054906101000a900460ff1615612e4f577f0c9b374f8c5c396fbb693c986c13fa624fcfc2ebebeff0fcf2fd8c7396626d268484846040518080602001806020018060200180602001858103855288818151815260200191508051906020019080838360005b83811015612d28578082015181840152602081019050612d0d565b50505050905090810190601f168015612d555780820380516001836020036101000a031916815260200191505b50858103845287818151815260200191508051906020019080838360005b83811015612d8e578082015181840152602081019050612d73565b50505050905090810190601f168015612dbb5780820380516001836020036101000a031916815260200191505b50858103835286818151815260200191508051906020019080838360005b83811015612df4578082015181840152602081019050612dd9565b50505050905090810190601f168015612e215780820380516001836020036101000a031916815260200191505b50858103825260268152602001806152376026913960400197505050505050505060405180910390a1613282565b60016002846040518082805190602001908083835b60208310612e875780518252602082019150602081019050602083039250612e64565b6001836020036101000a0380198251168184511680821785525050505050509050019150509081526020016040518091039020836040518082805190602001908083835b60208310612eee5780518252602082019150602081019050602083039250612ecb565b6001836020036101000a038019825116818451168082178552505050505050905001915050908152602001604051809103902060030160006101000a81548160ff021916908315150217905550836002846040518082805190602001908083835b60208310612f725780518252602082019150602081019050602083039250612f4f565b6001836020036101000a0380198251168184511680821785525050505050509050019150509081526020016040518091039020836040518082805190602001908083835b60208310612fd95780518252602082019150602081019050602083039250612fb6565b6001836020036101000a03801982511681845116808217855250505050505090500191505090815260200160405180910390206004019080519060200190613022929190615111565b50806002846040518082805190602001908083835b6020831061305a5780518252602082019150602081019050602083039250613037565b6001836020036101000a0380198251168184511680821785525050505050509050019150509081526020016040518091039020836040518082805190602001908083835b602083106130c1578051825260208201915060208101905060208303925061309e565b6001836020036101000a0380198251168184511680821785525050505050509050019150509081526020016040518091039020600501908051906020019061310a929190615111565b507ff859c2f8a577004107ab633d3b5f401f98c2391bdf8ce0a755dc94a1bed901e384848460405180806020018060200180602001848103845287818151815260200191508051906020019080838360005b8381101561317757808201518184015260208101905061315c565b50505050905090810190601f1680156131a45780820380516001836020036101000a031916815260200191505b50848103835286818151815260200191508051906020019080838360005b838110156131dd5780820151818401526020810190506131c2565b50505050905090810190601f16801561320a5780820380516001836020036101000a031916815260200191505b50848103825285818151815260200191508051906020019080838360005b83811015613243578082015181840152602081019050613228565b50505050905090810190601f1680156132705780820380516001836020036101000a031916815260200191505b50965050505050505060405180910390a15b50505050565b60008451116132ff576040517f08c379a000000000000000000000000000000000000000000000000000000000815260040180806020018281038252600c8152602001807f496e76616c69642075756964000000000000000000000000000000000000000081525060200191505060405180910390fd5b60008311613375576040517f08c379a000000000000000000000000000000000000000000000000000000000815260040180806020018281038252600f8152602001807f496e76616c6964205f576569676874000000000000000000000000000000000081525060200191505060405180910390fd5b60008251116133ec576040517f08c379a00000000000000000000000000000000000000000000000000000000081526004018080602001828103825260178152602001807f496e76616c696420696e697469616c20616972706f727400000000000000000081525060200191505060405180910390fd5b6001846040518082805190602001908083835b6020831061342257805182526020820191506020810190506020830392506133ff565b6001836020036101000a038019825116818451168082178552505050505050905001915050908152602001604051809103902060010160009054906101000a900460ff1615613595577ff2d52c968c2b790a14350167785f9237db696cdd049c8d18575ac161147a92d1828560405180806020018060200180602001848103845286818151815260200191508051906020019080838360005b838110156134d65780820151818401526020810190506134bb565b50505050905090810190601f1680156135035780820380516001836020036101000a031916815260200191505b50848103835285818151815260200191508051906020019080838360005b8381101561353c578082015181840152602081019050613521565b50505050905090810190601f1680156135695780820380516001836020036101000a031916815260200191505b508481038252602581526020018061525d602591396040019550505050505060405180910390a1613934565b6040518060600160405280848152602001600115158152602001838152506001856040518082805190602001908083835b602083106135e957805182526020820191506020810190506020830392506135c6565b6001836020036101000a03801982511681845116808217855250505050505090500191505090815260200160405180910390206000820151816000015560208201518160010160006101000a81548160ff0219169083151502179055506040820151816002019080519060200190613662929190615191565b5090505061366e6150d7565b60008160000190151590811515815250506001816060019015159081151581525050818160a00181905250806002846040518082805190602001908083835b602083106136d057805182526020820191506020810190506020830392506136ad565b6001836020036101000a0380198251168184511680821785525050505050509050019150509081526020016040518091039020866040518082805190602001908083835b602083106137375780518252602082019150602081019050602083039250613714565b6001836020036101000a038019825116818451168082178552505050505050905001915050908152602001604051809103902060008201518160000160006101000a81548160ff02191690831515021790555060208201518160010190805190602001906137a6929190615191565b5060408201518160020190805190602001906137c3929190615191565b5060608201518160030160006101000a81548160ff0219169083151502179055506080820151816004019080519060200190613800929190615191565b5060a082015181600501908051906020019061381d929190615191565b509050507faeccdef1af2145341bc50a57d50bfef34f7da0c75feb65c42f0261280c438f81838686604051808060200180602001848152602001838103835286818151815260200191508051906020019080838360005b8381101561388f578082015181840152602081019050613874565b50505050905090810190601f1680156138bc5780820380516001836020036101000a031916815260200191505b50838103825285818151815260200191508051906020019080838360005b838110156138f55780820151818401526020810190506138da565b50505050905090810190601f1680156139225780820380516001836020036101000a031916815260200191505b509550505050505060405180910390a1505b50505050565b60008451116139b1576040517f08c379a00000000000000000000000000000000000000000000000000000000081526004018080602001828103825260168152602001807f496e76616c696420736f7572636520616972706f72740000000000000000000081525060200191505060405180910390fd5b6000835111613a28576040517f08c379a000000000000000000000000000000000000000000000000000000000815260040180806020018281038252601b8152602001807f496e76616c69642064657374696e6174696f6e20616972706f7274000000000081525060200191505060405180910390fd5b6000825111613a9f576040517f08c379a000000000000000000000000000000000000000000000000000000000815260040180806020018281038252600c8152602001807f496e76616c69642075756964000000000000000000000000000000000000000081525060200191505060405180910390fd5b6001826040518082805190602001908083835b60208310613ad55780518252602082019150602081019050602083039250613ab2565b6001836020036101000a038019825116818451168082178552505050505050905001915050908152602001604051809103902060010160009054906101000a900460ff16613cd1577f0c9b374f8c5c396fbb693c986c13fa624fcfc2ebebeff0fcf2fd8c7396626d268484846040518080602001806020018060200180602001858103855288818151815260200191508051906020019080838360005b83811015613b8d578082015181840152602081019050613b72565b50505050905090810190601f168015613bba5780820380516001836020036101000a031916815260200191505b50858103845287818151815260200191508051906020019080838360005b83811015613bf3578082015181840152602081019050613bd8565b50505050905090810190601f168015613c205780820380516001836020036101000a031916815260200191505b50858103835286818151815260200191508051906020019080838360005b83811015613c59578082015181840152602081019050613c3e565b50505050905090810190601f168015613c865780820380516001836020036101000a031916815260200191505b50858103825260208152602001807f4e6f20617373657420776974682074686973205f55554944206578697374732e81525060200197505050505050505060405180910390a161461a565b6002846040518082805190602001908083835b60208310613d075780518252602082019150602081019050602083039250613ce4565b6001836020036101000a0380198251168184511680821785525050505050509050019150509081526020016040518091039020826040518082805190602001908083835b60208310613d6e5780518252602082019150602081019050602083039250613d4b565b6001836020036101000a038019825116818451168082178552505050505050905001915050908152602001604051809103902060030160009054906101000a900460ff16613f4d577f0c9b374f8c5c396fbb693c986c13fa624fcfc2ebebeff0fcf2fd8c7396626d268484846040518080602001806020018060200180602001858103855288818151815260200191508051906020019080838360005b83811015613e26578082015181840152602081019050613e0b565b50505050905090810190601f168015613e535780820380516001836020036101000a031916815260200191505b50858103845287818151815260200191508051906020019080838360005b83811015613e8c578082015181840152602081019050613e71565b50505050905090810190601f168015613eb95780820380516001836020036101000a031916815260200191505b50858103835286818151815260200191508051906020019080838360005b83811015613ef2578082015181840152602081019050613ed7565b50505050905090810190601f168015613f1f5780820380516001836020036101000a031916815260200191505b50858103825260248152602001806152826024913960400197505050505050505060405180910390a161461a565b6002846040518082805190602001908083835b60208310613f835780518252602082019150602081019050602083039250613f60565b6001836020036101000a0380198251168184511680821785525050505050509050019150509081526020016040518091039020826040518082805190602001908083835b60208310613fea5780518252602082019150602081019050602083039250613fc7565b6001836020036101000a038019825116818451168082178552505050505050905001915050908152602001604051809103902060000160009054906101000a900460ff16156141e7577f0c9b374f8c5c396fbb693c986c13fa624fcfc2ebebeff0fcf2fd8c7396626d268484846040518080602001806020018060200180602001858103855288818151815260200191508051906020019080838360005b838110156140a3578082015181840152602081019050614088565b50505050905090810190601f1680156140d05780820380516001836020036101000a031916815260200191505b50858103845287818151815260200191508051906020019080838360005b838110156141095780820151818401526020810190506140ee565b50505050905090810190601f1680156141365780820380516001836020036101000a031916815260200191505b50858103835286818151815260200191508051906020019080838360005b8381101561416f578082015181840152602081019050614154565b50505050905090810190601f16801561419c5780820380516001836020036101000a031916815260200191505b50858103825260208152602001807f53656e64657220616c72656164792073656e7420746865206c7567676167652e81525060200197505050505050505060405180910390a161461a565b60016002856040518082805190602001908083835b6020831061421f57805182526020820191506020810190506020830392506141fc565b6001836020036101000a0380198251168184511680821785525050505050509050019150509081526020016040518091039020836040518082805190602001908083835b602083106142865780518252602082019150602081019050602083039250614263565b6001836020036101000a038019825116818451168082178552505050505050905001915050908152602001604051809103902060000160006101000a81548160ff021916908315150217905550826002856040518082805190602001908083835b6020831061430a57805182526020820191506020810190506020830392506142e7565b6001836020036101000a0380198251168184511680821785525050505050509050019150509081526020016040518091039020836040518082805190602001908083835b60208310614371578051825260208201915060208101905060208303925061434e565b6001836020036101000a038019825116818451168082178552505050505050905001915050908152602001604051809103902060010190805190602001906143ba929190615111565b50806002856040518082805190602001908083835b602083106143f257805182526020820191506020810190506020830392506143cf565b6001836020036101000a0380198251168184511680821785525050505050509050019150509081526020016040518091039020836040518082805190602001908083835b602083106144595780518252602082019150602081019050602083039250614436565b6001836020036101000a038019825116818451168082178552505050505050905001915050908152602001604051809103902060020190805190602001906144a2929190615111565b507ff859c2f8a577004107ab633d3b5f401f98c2391bdf8ce0a755dc94a1bed901e384848460405180806020018060200180602001848103845287818151815260200191508051906020019080838360005b8381101561450f5780820151818401526020810190506144f4565b50505050905090810190601f16801561453c5780820380516001836020036101000a031916815260200191505b50848103835286818151815260200191508051906020019080838360005b8381101561457557808201518184015260208101905061455a565b50505050905090810190601f1680156145a25780820380516001836020036101000a031916815260200191505b50848103825285818151815260200191508051906020019080838360005b838110156145db5780820151818401526020810190506145c0565b50505050905090810190601f1680156146085780820380516001836020036101000a031916815260200191505b50965050505050505060405180910390a15b50505050565b6060806040518060400160405280600181526020017f200000000000000000000000000000000000000000000000000000000000000081525090506060614666846114b2565b80925081935050508092505050919050565b60006060600060608060606002886040518082805190602001908083835b602083106146b95780518252602082019150602081019050602083039250614696565b6001836020036101000a0380198251168184511680821785525050505050509050019150509081526020016040518091039020876040518082805190602001908083835b6020831061472057805182526020820191506020810190506020830392506146fd565b6001836020036101000a038019825116818451168082178552505050505050905001915050908152602001604051809103902060000160009054906101000a900460ff166002896040518082805190602001908083835b6020831061479a5780518252602082019150602081019050602083039250614777565b6001836020036101000a0380198251168184511680821785525050505050509050019150509081526020016040518091039020886040518082805190602001908083835b6020831061480157805182526020820191506020810190506020830392506147de565b6001836020036101000a038019825116818451168082178552505050505050905001915050908152602001604051809103902060010160028a6040518082805190602001908083835b6020831061486d578051825260208201915060208101905060208303925061484a565b6001836020036101000a0380198251168184511680821785525050505050509050019150509081526020016040518091039020896040518082805190602001908083835b602083106148d457805182526020820191506020810190506020830392506148b1565b6001836020036101000a038019825116818451168082178552505050505050905001915050908152602001604051809103902060030160009054906101000a900460ff1660028b6040518082805190602001908083835b6020831061494e578051825260208201915060208101905060208303925061492b565b6001836020036101000a03801982511681845116808217855250505050505090500191505090815260200160405180910390208a6040518082805190602001908083835b602083106149b55780518252602082019150602081019050602083039250614992565b6001836020036101000a038019825116818451168082178552505050505050905001915050908152602001604051809103902060040160028c6040518082805190602001908083835b60208310614a2157805182526020820191506020810190506020830392506149fe565b6001836020036101000a03801982511681845116808217855250505050505090500191505090815260200160405180910390208b6040518082805190602001908083835b60208310614a885780518252602082019150602081019050602083039250614a65565b6001836020036101000a038019825116818451168082178552505050505050905001915050908152602001604051809103902060020160028d6040518082805190602001908083835b60208310614af45780518252602082019150602081019050602083039250614ad1565b6001836020036101000a03801982511681845116808217855250505050505090500191505090815260200160405180910390208c6040518082805190602001908083835b60208310614b5b5780518252602082019150602081019050602083039250614b38565b6001836020036101000a0380198251168184511680821785525050505050509050019150509081526020016040518091039020600401848054600181600116156101000203166002900480601f016020809104026020016040519081016040528092919081815260200182805460018160011615610100020316600290048015614c265780601f10614bfb57610100808354040283529160200191614c26565b820191906000526020600020905b815481529060010190602001808311614c0957829003601f168201915b50505050509450828054600181600116156101000203166002900480601f016020809104026020016040519081016040528092919081815260200182805460018160011615610100020316600290048015614cc25780601f10614c9757610100808354040283529160200191614cc2565b820191906000526020600020905b815481529060010190602001808311614ca557829003601f168201915b50505050509250818054600181600116156101000203166002900480601f016020809104026020016040519081016040528092919081815260200182805460018160011615610100020316600290048015614d5e5780601f10614d3357610100808354040283529160200191614d5e565b820191906000526020600020905b815481529060010190602001808311614d4157829003601f168201915b50505050509150808054600181600116156101000203166002900480601f016020809104026020016040519081016040528092919081815260200182805460018160011615610100020316600290048015614dfa5780601f10614dcf57610100808354040283529160200191614dfa565b820191906000526020600020905b815481529060010190602001808311614ddd57829003601f168201915b505050505090509550955095509550955095509295509295509295565b606088888888888888886040516020018089805190602001908083835b60208310614e575780518252602082019150602081019050602083039250614e34565b6001836020036101000a03801982511681845116808217855250505050505090500188805190602001908083835b60208310614ea85780518252602082019150602081019050602083039250614e85565b6001836020036101000a03801982511681845116808217855250505050505090500187805190602001908083835b60208310614ef95780518252602082019150602081019050602083039250614ed6565b6001836020036101000a03801982511681845116808217855250505050505090500186805190602001908083835b60208310614f4a5780518252602082019150602081019050602083039250614f27565b6001836020036101000a03801982511681845116808217855250505050505090500185805190602001908083835b60208310614f9b5780518252602082019150602081019050602083039250614f78565b6001836020036101000a03801982511681845116808217855250505050505090500184805190602001908083835b60208310614fec5780518252602082019150602081019050602083039250614fc9565b6001836020036101000a03801982511681845116808217855250505050505090500183805190602001908083835b6020831061503d578051825260208201915060208101905060208303925061501a565b6001836020036101000a03801982511681845116808217855250505050505090500182805190602001908083835b6020831061508e578051825260208201915060208101905060208303925061506b565b6001836020036101000a03801982511681845116808217855250505050505090500198505050505050505050604051602081830303815290604052905098975050505050505050565b6040518060c00160405280600015158152602001606081526020016060815260200160001515815260200160608152602001606081525090565b828054600181600116156101000203166002900490600052602060002090601f016020900481019282601f1061515257805160ff1916838001178555615180565b82800160010185558215615180579182015b8281111561517f578251825591602001919060010190615164565b5b50905061518d9190615211565b5090565b828054600181600116156101000203166002900490600052602060002090601f016020900481019282601f106151d257805160ff1916838001178555615200565b82800160010185558215615200579182015b828111156151ff5782518255916020019190600101906151e4565b5b50905061520d9190615211565b5090565b61523391905b8082111561522f576000816000905550600101615217565b5090565b9056fe526563656976657220616c72656164792072656365697665642074686973206c756767616765417373657420776974682074686973205f5555494420616c7265616479206578697374732e53656e64657220646964206e6f7420726563656976652074686973206c7567676167652ea165627a7a723058203244c46f75ee3106d69a2fde09dd32de71fa224ca047fd53b7f34ae106c44ea80029",
  "source": "pragma solidity ^0.5.0;\n\ncontract addLuggage2{\n    string public name;\n    mapping(string => Luggage) private luggageStore;\n    mapping(string => mapping(string => sentreceived)) private walletStore;\n\n    struct Luggage {\n        uint weight;\n        bool initialized;\n        string airport_initial;\n    }\n\n    struct sentreceived {\n        bool sent;\n        string airport_sent;\n        string timestamp_sent;\n        bool received;\n        string airport_received;\n        string timestamp_received;\n    }\n\n    event AssetCreate(string account, string uuid, uint weight);\n    event RejectCreate(string account, string uuid, string message);\n    event AssetTransfer(string from, string to, string uuid);\n    event RejectTransfer(string from, string to, string uuid, string message);\n\n    function createAsset(string memory _uuid, uint _weight, string memory _airport_initial, string memory _timestamp) public {\n\n        // Require valid _uuid\n        require(bytes(_uuid).length>0, \"Invalid uuid\");\n        //Require a valid _weight\n        require(_weight>0,\"Invalid _Weight\");\n        //Require a valid initial airport\n        require(bytes(_airport_initial).length>0,\"Invalid initial airport\");\n\n        if(luggageStore[_uuid].initialized) {\n            emit RejectCreate(_airport_initial, _uuid, \"Asset with this _UUID already exists.\");\n            return;\n        }\n\n        luggageStore[_uuid] = Luggage(_weight, true, _airport_initial);\n        sentreceived memory a;\n        a.sent = false;\n        a.received = true;\n        a.timestamp_received = _timestamp;\n        walletStore[_airport_initial][_uuid] = a;\n        emit AssetCreate(_airport_initial, _uuid, _weight);\n    }\n\n    function sendAsset(string memory _airport_from, string memory _airport_to, string memory _uuid, string memory _timestamp) public {\n        // Require valid _airport_from\n        require(bytes(_airport_from).length>0,\"Invalid source airport\");\n        // Require valid _airport_to\n        require(bytes(_airport_to).length>0,\"Invalid destination airport\");\n        // Require valid _uuid\n        require(bytes(_uuid).length>0, \"Invalid uuid\");\n\n        if(!luggageStore[_uuid].initialized) {\n            emit RejectTransfer(_airport_from, _airport_to, _uuid, \"No asset with this _UUID exists.\");\n            return;\n        }\n        if(!walletStore[_airport_from][_uuid].received) {\n            emit RejectTransfer(_airport_from, _airport_to, _uuid, \"Sender did not receive this luggage.\");\n            return;\n        }\n        if(walletStore[_airport_from][_uuid].sent) {\n            emit RejectTransfer(_airport_from, _airport_to, _uuid, \"Sender already sent the luggage.\");\n            return;\n        }\n        walletStore[_airport_from][_uuid].sent = true;\n        walletStore[_airport_from][_uuid].airport_sent = _airport_to;\n        walletStore[_airport_from][_uuid].timestamp_sent = _timestamp;\n        // walletStore[to][_uuid] = true;\n        emit AssetTransfer(_airport_from, _airport_to, _uuid);\n    }\n\n    function receiveAsset(string memory _airport_from, string memory _airport_to, string memory _uuid, string memory _timestamp) public {\n        // Require valid _airport_from\n        require(bytes(_airport_from).length>0,\"Invalid source airport\");\n        // Require valid _airport_to\n        require(bytes(_airport_to).length>0,\"Invalid destination airport\");\n        // Require valid _uuid\n        require(bytes(_uuid).length>0, \"Invalid uuid\");\n\n        if(!luggageStore[_uuid].initialized) {\n            emit RejectTransfer(_airport_from, _airport_to, _uuid, \"No asset with this _UUID exists\");\n            return;\n        }\n        if(!walletStore[_airport_from][_uuid].sent) {\n            emit RejectTransfer(_airport_from, _airport_to, _uuid, \"Sender did not send the luggage\");\n            return;\n        }\n        if(walletStore[_airport_to][_uuid].received) {\n            emit RejectTransfer(_airport_from, _airport_to, _uuid, \"Receiver already received this luggage\");\n            return;\n        }\n        walletStore[_airport_to][_uuid].received = true;\n        walletStore[_airport_to][_uuid].airport_received = _airport_from;\n        walletStore[_airport_to][_uuid].timestamp_received = _timestamp;\n        // walletStore[to][_uuid] = true;\n        emit AssetTransfer(_airport_from, _airport_to, _uuid);\n    }\n\n    function getAssetByUUID(string memory _uuid) public view returns (uint, string memory) {\n        return (luggageStore[_uuid].weight, luggageStore[_uuid].airport_initial);\n    }\n\n    function getWalletStore(string memory _airport, string memory _uuid) public view returns (bool, string memory, bool, string memory, string memory, string memory) {\n        return (walletStore[_airport][_uuid].sent, walletStore[_airport][_uuid].airport_sent, walletStore[_airport][_uuid].received, walletStore[_airport][_uuid].airport_received, walletStore[_airport][_uuid].timestamp_sent, walletStore[_airport][_uuid].airport_received);\n    }\n\n    function isOwnerOf(string memory _owner, string memory _uuid) public view returns (bool) {\n        if(walletStore[_owner][_uuid].received && !walletStore[_owner][_uuid].sent) {\n            return true;\n        }\n        return false;\n    }\n\n    function append(string memory a, string memory b, string memory c, string memory d, string memory e, string memory f, string memory g, string memory h) internal pure returns (string memory) {\n        return string(abi.encodePacked(a, b, c, d, e, f, g, h));\n    }\n\n    function trackLuggage(string memory _uuid) public view returns (string memory, string memory)  {\n        string memory cur_airport = luggageStore[_uuid].airport_initial;\n        string memory output = \"\";\n        string memory temp_output = \"\";\n        sentreceived memory cur_sr = walletStore[luggageStore[_uuid].airport_initial][_uuid];\n        temp_output = append(\"\", \"\", \"Luggage received at \",cur_airport,\" \",cur_sr.timestamp_received, \"\",\"\\n\");\n        output = append(output, temp_output, \"\", \"\", \"\", \"\", \"\", \"\");\n        while(cur_sr.sent) {\n            temp_output = append(\"\", \"Luggage sent from \",cur_airport,\" to \",cur_sr.airport_sent, \" \", cur_sr.timestamp_sent,\"\\n\");\n            output = append(output, temp_output, \"\", \"\", \"\", \"\", \"\", \"\");\n            if(walletStore[cur_sr.airport_sent][_uuid].received) {\n                temp_output = append(\"\", \"Luggage received at \",cur_sr.airport_sent,\" from \",walletStore[cur_sr.airport_sent][_uuid].airport_received, \" \", walletStore[cur_sr.airport_sent][_uuid].timestamp_received,\"\\n\");\n                output = append(output, temp_output, \"\", \"\", \"\", \"\", \"\", \"\");\n            }\n            cur_airport = cur_sr.airport_sent;\n            cur_sr = walletStore[cur_airport][_uuid];\n        }\n        return (output, temp_output);\n    }\n\n    function locateMyLuggage(string memory _uuid) public view returns (string memory) {\n        string memory output = \" \";\n        // bool received;\n        string memory temp_output;\n        (output, temp_output) = trackLuggage(_uuid);\n        return temp_output;\n        // if(received) {\n        //     output = append(\"Luggage received at \", cur_airport, \"\", \"\", \"\", \"\");\n        //     return output;\n        // }\n\n        // else {\n        //     output = append(\"The Luggage is still on route from \", airport_received, \" to \", cur_airport, \"\\n\", \"\");\n        //     return output;\n        // }\n\n    }\n}\n\n// addluggage2 = await addLuggage2.deployed()\n// ac = await web3.eth.getAccounts()\n// addluggage2.createAsset(\"123\", 123, \"Bangalore\")\n// addluggage2.isOwnerOf(\"Bangalore\", \"123\")\n// addluggage2.sendAsset(\"Bangalore\", \"Chennai\", \"123\")\n// addluggage2.isOwnerOf(\"Chennai\", \"123\")\n// addluggage2.receiveAsset(\"Bangalore\", \"Chennai\", \"123\")\n// addluggage2.isOwnerOf(\"Chennai\", \"123\")\n// addluggage2.trackLuggage(\"123\")\n// addluggage2.locateMyLuggage(\"123\")\n\n// addluggage2.sendAsset(\"Chennai\", \"Mumbai\", \"123\")\n",
  "sourcePath": "/Users/sarnayak/Sam/Blockchain/Ethereum/marketplace/src/contracts/addLuggage2.sol",
  "compiler": {
    "name": "solc",
    "version": "0.5.8+commit.23d335f2.Emscripten.clang"
  },
  "schemaVersion": "3.0.16",
  "updatedAt": "2019-11-11T16:00:05.946Z",
  "devdoc": {
    "methods": {}
  },
  "userdoc": {
    "methods": {}
  }
}