{
  "contractName": "Luggage_Tracking",
  "abi": [
    {
      "constant": true,
      "inputs": [],
      "name": "name",
      "outputs": [
        {
          "name": "",
          "type": "string"
        }
      ],
      "payable": false,
      "stateMutability": "view",
      "type": "function"
    },
    {
      "constant": true,
      "inputs": [
        {
          "name": "",
          "type": "uint256"
        }
      ],
      "name": "luggages",
      "outputs": [
        {
          "name": "id",
          "type": "uint256"
        },
        {
          "name": "owner_name",
          "type": "string"
        },
        {
          "name": "price",
          "type": "uint256"
        },
        {
          "name": "weight",
          "type": "uint256"
        },
        {
          "name": "owner",
          "type": "address"
        },
        {
          "name": "sent",
          "type": "bool"
        },
        {
          "name": "airport_id",
          "type": "uint256"
        },
        {
          "name": "airport_name",
          "type": "string"
        }
      ],
      "payable": false,
      "stateMutability": "view",
      "type": "function"
    },
    {
      "constant": true,
      "inputs": [],
      "name": "luggageCount",
      "outputs": [
        {
          "name": "",
          "type": "uint256"
        }
      ],
      "payable": false,
      "stateMutability": "view",
      "type": "function"
    },
    {
      "anonymous": false,
      "inputs": [
        {
          "indexed": false,
          "name": "id",
          "type": "uint256"
        },
        {
          "indexed": false,
          "name": "owner_name",
          "type": "string"
        },
        {
          "indexed": false,
          "name": "price",
          "type": "uint256"
        },
        {
          "indexed": false,
          "name": "weight",
          "type": "uint256"
        },
        {
          "indexed": false,
          "name": "owner",
          "type": "address"
        },
        {
          "indexed": false,
          "name": "sent",
          "type": "bool"
        },
        {
          "indexed": false,
          "name": "airport_id",
          "type": "uint256"
        },
        {
          "indexed": false,
          "name": "airport_name",
          "type": "string"
        }
      ],
      "name": "LuggageAdded",
      "type": "event"
    },
    {
      "constant": false,
      "inputs": [
        {
          "name": "_owner_name",
          "type": "string"
        },
        {
          "name": "_price",
          "type": "uint256"
        },
        {
          "name": "_weight",
          "type": "uint256"
        },
        {
          "name": "_airport_id",
          "type": "uint256"
        },
        {
          "name": "_airport_name",
          "type": "string"
        }
      ],
      "name": "addLuggage",
      "outputs": [],
      "payable": false,
      "stateMutability": "nonpayable",
      "type": "function"
    }
  ],
  "bytecode": "0x608060405234801561001057600080fd5b50610bf4806100206000396000f3fe608060405234801561001057600080fd5b506004361061004c5760003560e01c806306fdde03146100515780637563e18b146100d457806375dc795814610244578063c6193e52146103b1575b600080fd5b6100596103cf565b6040518080602001828103825283818151815260200191508051906020019080838360005b8381101561009957808201518184015260208101905061007e565b50505050905090810190601f1680156100c65780820380516001836020036101000a031916815260200191505b509250505060405180910390f35b610242600480360360a08110156100ea57600080fd5b810190808035906020019064010000000081111561010757600080fd5b82018360208201111561011957600080fd5b8035906020019184600183028401116401000000008311171561013b57600080fd5b91908080601f016020809104026020016040519081016040528093929190818152602001838380828437600081840152601f19601f820116905080830192505050505050509192919290803590602001909291908035906020019092919080359060200190929190803590602001906401000000008111156101bc57600080fd5b8201836020820111156101ce57600080fd5b803590602001918460018302840111640100000000831117156101f057600080fd5b91908080601f016020809104026020016040519081016040528093929190818152602001838380828437600081840152601f19601f82011690508083019250505050505050919291929050505061046d565b005b6102706004803603602081101561025a57600080fd5b8101908080359060200190929190505050610978565b60405180898152602001806020018881526020018781526020018673ffffffffffffffffffffffffffffffffffffffff1673ffffffffffffffffffffffffffffffffffffffff168152602001851515151581526020018481526020018060200183810383528a818151815260200191508051906020019080838360005b838110156103085780820151818401526020810190506102ed565b50505050905090810190601f1680156103355780820380516001836020036101000a031916815260200191505b50838103825284818151815260200191508051906020019080838360005b8381101561036e578082015181840152602081019050610353565b50505050905090810190601f16801561039b5780820380516001836020036101000a031916815260200191505b509a505050505050505050505060405180910390f35b6103b9610b1d565b6040518082815260200191505060405180910390f35b60008054600181600116156101000203166002900480601f0160208091040260200160405190810160405280929190818152602001828054600181600116156101000203166002900480156104655780601f1061043a57610100808354040283529160200191610465565b820191906000526020600020905b81548152906001019060200180831161044857829003601f168201915b505050505081565b60008551116104e4576040517f08c379a00000000000000000000000000000000000000000000000000000000081526004018080602001828103825260128152602001807f496e76616c6964204f776e6572206e616d65000000000000000000000000000081525060200191505060405180910390fd5b6000841161055a576040517f08c379a000000000000000000000000000000000000000000000000000000000815260040180806020018281038252600d8152602001807f496e76616c69642050726963650000000000000000000000000000000000000081525060200191505060405180910390fd5b600083116105d0576040517f08c379a000000000000000000000000000000000000000000000000000000000815260040180806020018281038252600e8152602001807f496e76616c69642057656967687400000000000000000000000000000000000081525060200191505060405180910390fd5b6000815111610647576040517f08c379a00000000000000000000000000000000000000000000000000000000081526004018080602001828103825260148152602001807f496e76616c696420616972706f7274206e616d6500000000000000000000000081525060200191505060405180910390fd5b600082116106bd576040517f08c379a000000000000000000000000000000000000000000000000000000000815260040180806020018281038252600a8152602001807f496e76616c69642049440000000000000000000000000000000000000000000081525060200191505060405180910390fd5b60016000815480929190600101919050555060405180610100016040528060015481526020018681526020018581526020018481526020013373ffffffffffffffffffffffffffffffffffffffff1681526020016001151581526020018381526020018281525060026000600154815260200190815260200160002060008201518160000155602082015181600101908051906020019061075f929190610b23565b50604082015181600201556060820151816003015560808201518160040160006101000a81548173ffffffffffffffffffffffffffffffffffffffff021916908373ffffffffffffffffffffffffffffffffffffffff16021790555060a08201518160040160146101000a81548160ff02191690831515021790555060c0820151816005015560e0820151816006019080519060200190610801929190610b23565b509050507f86c42b32b71fdc3cca65c2200e8c8cd1a1b5dd98feb922d4d4eaa145cea8181a600154868686336001888860405180898152602001806020018881526020018781526020018673ffffffffffffffffffffffffffffffffffffffff1673ffffffffffffffffffffffffffffffffffffffff168152602001851515151581526020018481526020018060200183810383528a818151815260200191508051906020019080838360005b838110156108c95780820151818401526020810190506108ae565b50505050905090810190601f1680156108f65780820380516001836020036101000a031916815260200191505b50838103825284818151815260200191508051906020019080838360005b8381101561092f578082015181840152602081019050610914565b50505050905090810190601f16801561095c5780820380516001836020036101000a031916815260200191505b509a505050505050505050505060405180910390a15050505050565b6002602052806000526040600020600091509050806000015490806001018054600181600116156101000203166002900480601f016020809104026020016040519081016040528092919081815260200182805460018160011615610100020316600290048015610a2a5780601f106109ff57610100808354040283529160200191610a2a565b820191906000526020600020905b815481529060010190602001808311610a0d57829003601f168201915b5050505050908060020154908060030154908060040160009054906101000a900473ffffffffffffffffffffffffffffffffffffffff16908060040160149054906101000a900460ff1690806005015490806006018054600181600116156101000203166002900480601f016020809104026020016040519081016040528092919081815260200182805460018160011615610100020316600290048015610b135780601f10610ae857610100808354040283529160200191610b13565b820191906000526020600020905b815481529060010190602001808311610af657829003601f168201915b5050505050905088565b60015481565b828054600181600116156101000203166002900490600052602060002090601f016020900481019282601f10610b6457805160ff1916838001178555610b92565b82800160010185558215610b92579182015b82811115610b91578251825591602001919060010190610b76565b5b509050610b9f9190610ba3565b5090565b610bc591905b80821115610bc1576000816000905550600101610ba9565b5090565b9056fea165627a7a7230582063994f86289c27b9575c5c677065e6eac32850789ef4c882332400b57c430a0b0029",
  "source": "pragma solidity ^0.5.0;\n\ncontract Luggage_Tracking{\n    string public name;\n    uint public luggageCount;\n    mapping(uint => Luggage) public luggages;\n\n    struct Luggage{\n        uint id;\n        string owner_name;\n        uint price;\n        uint weight;\n        address payable owner;\n        bool sent;\n        uint airport_id;\n        string airport_name;\n\n    }\n    event LuggageAdded (\n        uint id,\n        string owner_name,\n        uint price,\n        uint weight,\n        address payable owner,\n        bool sent,\n        uint airport_id,\n        string airport_name\n    );\n    function addLuggage(string memory _owner_name, uint _price, uint _weight, uint _airport_id , string memory _airport_name) public {\n        // Require a valid name\n        require(bytes(_owner_name).length > 0, \"Invalid Owner name\");\n\n        // Require a valid price\n        require(_price > 0,\"Invalid Price\");\n\n        //Require a valid weight\n        require(_weight>0,\"Invalid Weight\");\n\n        //Require a valid airport name\n        require(bytes(_airport_name).length > 0,\"Invalid airport name\");\n\n        //Require a valid id\n        require(_airport_id>0, \"Invalid ID\");\n    \n        // Make sure parameters are correct\n        // Increment Luggage count\n        luggageCount ++;\n        \n        // Create the product\n        luggages[luggageCount] = Luggage(luggageCount, _owner_name, _price, _weight, msg.sender, true, _airport_id, _airport_name);\n        \n        // Trigger an event\n        emit LuggageAdded(luggageCount, _owner_name, _price, _weight, msg.sender, true, _airport_id, _airport_name);\n\n    }\n} ",
  "sourcePath": "/Users/sarnayak/Sam/Blockchain/Ethereum/marketplace/src/contracts/addLuggage.sol",
  "compiler": {
    "name": "solc",
    "version": "0.5.8+commit.23d335f2.Emscripten.clang"
  },
  "schemaVersion": "3.0.16",
  "updatedAt": "2019-11-08T06:18:27.152Z",
  "devdoc": {
    "methods": {}
  },
  "userdoc": {
    "methods": {}
  }
}